:02000002D0002C
:1040000000400D0044B80D00000006000C00050142
:084010000401E80500000000B6
:0440180028A30D00CC
:1040200009480A49884208B505D0094A824202D0A7
:10403000121A04F087FB0748074A0021121A04F0FD
:10404000A7FB014808BD00BFE8DC032054B30D0006
:10405000B0E10320B0E10320F0E7032070B502F0E7
:104060005DFD074C074BE41AA40800251E46A54237
:1040700004D056F8253098470135F8E770BD00BFE9
:1040800048B30D00F4B20D0000F0ECB808B500F034
:10409000C5F9BDE8084002F003BD02F005BA02F020
:1040A0000BBA02F009BA000008B5034A00210C203F
:1040B00002F06EF9FEE700BF01610D000078B0FA72
:1040C00080F04009704701230370704770477047C4
:1040D00038B584690A4B036005467CB16368013BCF
:1040E00063605BB9236820469B689847A368013BDF
:1040F000A3601BB923682046DB689847284638BD73
:1041000068AF0D0010B50446FFF7E2FF20461C2102
:1041100003F0A8FC204610BD08B5104B1B68012B0E
:1041200001BF0F4A137883F0010313700D4B1B7806
:104130009BB10B4B1B7883B10B4B0121188803F00B
:10414000DCFB0A4B0121188803F0D7FB084B002148
:104150001888BDE8084003F0D0BB08BDF0DC0320A0
:10416000D0E2032024E30320E8DC0320ECDC03207E
:10417000F4DC032070B50F4B0F4E1C780F4D104B25
:104180004CB91888214603F0B8FB2146308803F06B
:10419000B4FB214608E01888012103F0AEFB0121A1
:1041A000308803F0AAFB01212888BDE8704003F0A5
:1041B000A4BB00BFD0E20320ECDC0320F4DC03202E
:1041C000E8DC032008B5074800F0F8FA064BBDEE1E
:1041D000C00A83ED000A054B188803F0BAFB044BB4
:1041E000186008BD28E3032000E30320F8DC032067
:1041F000F8E1032038B5174801F033FB40BB02F06B
:104200009FFD154902F08CFB124801F048FE044660
:10421000B8B102F095FD214605460E4801F05AFC62
:104220000146284602F08FFB02F08AFD0B4902F09E
:104230008AFB084801F05CFC41F2883002F0FAFB8E
:10424000E2E702F07DFD0649BDE8384002F07BBBA5
:1042500038BD00BFFCE103203CA30D0053A30D00BB
:104260007CA30D00F8B5224F224E234D234C002194
:10427000132003F031FB3888012103F02DFB308837
:10428000012103F029FB2888012103F025FB1C4BA9
:104290000021188803F020FB1A4B0021188803F036
:1042A0001BFB3C222046022100F0C4FF01212046D6
:1042B00001F0CAFA144800F0D3FC204601F08CF853
:1042C00040F2EE2002F0B6FBFFF794FF0F491048D2
:1042D00001F022FC3888002103F00FFB3088002118
:1042E00003F00BFB28880021BDE8F84003F005BB74
:1042F000E8DC0320ECDC0320F4DC0320DCE2032018
:10430000F0DC0320F8DC032028E30320B4E10320E1
:10431000FCE1032038B501F0FBFE104B1A68801A4F
:1043200047F2305290421C4617D902F009FD0C4A60
:10433000002102F032FB01210A4801F087FC05460A
:1043400040B902F0FDFC084A294602F026FB054868
:1043500001F0CEFB01F0DCFE206038BD20E303203D
:104360008CA30D00FCE103209BA30D002DE9F0417F
:1043700007460C4615462AB90368C9B29B68BDE8D2
:10438000F0411847002907DA0A2A05D12D2102F049
:10439000CBFA6142064601E021460026EAB23846E1
:1043A00002F0DBFA3044BDE8F081000010B5144C97
:1043B000204600F0EFFE00221146204601F041FAAF
:1043C0001049204602F0BFFA0F4B0A221978204606
:1043D00002F0C3FA0D49204602F0B5FA0C4B0A224E
:1043E00019682046FFF7C2FF0A49204602F0ABFADF
:1043F000094B0A2219682046FFF7B8FF10BD00BF1D
:10440000DCE20320ABA30D00D0E20320B4A30D0037
:1044100000E30320C2A30D00F8E1032070B5FFF70D
:1044200079FFFFF7A7FEFFF7C1FFFFF7CBFEFFF70E
:1044300073FE1C4D1C484FF47A6101F089FBA8B152
:10444000A842F7D1681D04F053F951EC100B04F0A9
:10445000B7F8164C206002F073FC0A220646216869
:10446000FFF784FF304602F062FAE3E701F050FE06
:104470000F4B1A68801A42F2107290421C4610D9F3
:10448000094801F06CFA48B10A4B0B48196801F071
:1044900073FD0A4B0A48196801F06EFD01F038FE01
:1044A000206070BDB4E10320FCE10320D4E20320CE
:1044B000D8E2032000E30320A4E30320F8E1032073
:1044C000ECE1032010B52421044603F0CBFA20468A
:1044D00010BD10B5D421044603F0C4FA204610BD27
:1044E00073B5234C234D244E01F06AFD0421204670
:1044F00000F03AFE2A462149204603F0A5FA20485A
:10450000204C00F089F8304603F0B0F82A461E49E6
:10451000304603F099FA1D4B009340F25B721C4B3E
:104520001C49204601F050FA1B4B1C4923602A46C7
:104530002046C4F8D06003F087FA21460023184AC9
:10454000184801F01BFD21460023174A174801F0C7
:1045500015FD21460023164A164801F0F9FC164ABB
:1045600016480023214602B0BDE8704001F0F0BCBF
:10457000DCE20320B0E1032004E30320CD400D0082
:1045800028E30320FCE10320D1400D00EDA30D0042
:10459000D1A30D00DDA30D00E0AA0D00CF400D005A
:1045A0000EA40D006CE3032029A40D00B4E1032048
:1045B00042A40D00A4E303205FA40D00ECE103205E
:1045C0007FB5024608461379956833B13DB90C4969
:1045D00004B0BDE8704002F0A3B90A4B00E00A4BFA
:1045E000167B0A4C0A49527B0292012E08BF2146D3
:1045F00001910095074A002102F0CFF904B070BD87
:104600009DA40D0053AB0D008CA40D0095A40D00CE
:1046100099A40D00B3A40D00FF22027442748274A9
:10462000C274704738B5094D296811F001040AD1E8
:104630002846FFF743FD30B12146054801F0A0FFB1
:104640002846FFF740FD024838BD00BFB0E3032015
:10465000B4E303202DE9F04190F91330013305460E
:104660000F4606D1FFF7DEFF3946BDE8F04102F004
:10467000A3B8072600244FF0010895F91300002184
:1046800080B203F03AF995F9110008FA06F13940C1
:1046900080B203F032F995F91300012180B203F0E2
:1046A0002CF995F91200640080B2E4B203F03EF9EF
:1046B00008B144F0010416F1FF36DED22046BDE811
:1046C000F08108B5FFF7AEFFBDE8084001F095BFE7
:1046D00010B50446FFF7A6FF2146BDE8104001F0E3
:1046E000A5BF000030B590F91030013385B0044605
:1046F0000D4621D10179006802F03FFC2068036873
:1047000029469B689847206802F042FC03222179E1
:10471000206802F02FFC206803685B699847050257
:10472000206803685B69984728430502206803688E
:104730005B699847054339E090F9133001330ED196
:104740001C4B1D4A009302920023012268468DF8FB
:1047500004308DF80C208DF80D30FFF7B9FF94F977
:104760001000002180B203F0C8F845F08001204617
:10477000FFF770FF00212046FFF76CFF00210502C4
:104780002046FFF767FF2843050200212046FFF778
:1047900061FF054394F91000012180B203F0ADF8E8
:1047A00094F91330013301D1FFF78BFF284605B090
:1047B00030BD00BF88A40D0020A1070010B5FA216C
:1047C0000446FFF78FFFB0F5000F1ED0A28A9FEDC1
:1047D000107AC2EB20235200C2EBE010B4F916208D
:1047E0005B435043B4F918201B1353439B1303EB53
:1047F000E020E06000EB80008030001207EE900ABD
:10480000F8EEE77A87EE870A10BD9FED020A10BD29
:104810000000C8420000C07F30B590F9103001336D
:1048200085B004460D461DD10179006802F0A5FB54
:104830002068036829469B689847206802F0A8FB17
:1048400002222179206802F095FB206803685B69E9
:1048500098470546206803685B69984740EA052049
:1048600085B235E090F9133001330ED11A4B1B4A53
:10487000009302920023012268468DF804308DF8DF
:104880000C208DF80D30FFF723FF94F91000002164
:1048900080B203F032F845F080012046FFF7DAFEDF
:1048A00000212046FFF7D6FE002105462046FFF7EF
:1048B000D1FE40EA052085B294F91000012180B2B2
:1048C00003F01BF894F91330013301D1FFF7F9FE1F
:1048D000284605B030BD00BF88A40D0020A1070008
:1048E00008B5FFF799FF40BA80B208BD30B590F91E
:1048F0001030013385B004460D4616D101790068A9
:1049000002F03BFB2068036829469B6898472068B3
:1049100002F03EFB01222179206802F02BFB206887
:1049200003685B699847C5B22EE090F913300133F4
:104930000ED1174B174A00930292002301226846BA
:104940008DF804308DF80C208DF80D30FFF7C0FE87
:1049500094F91000002180B202F0CFFF45F08001F1
:104960002046FFF777FE00212046FFF773FE05463D
:1049700094F91000012180B202F0BFFF94F91330C6
:10498000013301D1FFF79DFE284605B030BD00BFC1
:1049900088A40D0020A1070008B5F321FFF7A6FFAA
:1049A00000F0010008BD38B588210446FFF798FFE4
:1049B0008A21A0822046FFF793FF8C21E0822046C7
:1049C000FFF78EFF8E2120832046FFF789FF90217D
:1049D00060832046FFF784FF9221A0832046FFF7E3
:1049E0007FFF9421E0832046FFF77AFF9621208401
:1049F0002046FFF775FF982160842046FFF770FF7F
:104A00009A21A0842046FFF76BFF9C21E08420467A
:104A1000FFF766FF9E2120852046FFF761FFA12159
:104A200060852046FFF762FFE12184F82C002046D4
:104A3000FFF756FFE321E0852046FFF757FFE4210B
:104A400084F830002046FFF751FFE5210546204657
:104A5000FFF74CFF00F00F0040EA05106086E621EA
:104A60002046FFF743FFE52105462046FFF73EFFBE
:104A7000001140EA0510A086E7212046FFF736FF27
:104A800084F8360038BD00007FB590F9103001334E
:104A900004460E46154611D10179006802F06DFA00
:104AA0002068036831469B68984720680368294658
:104AB0009B689847206802F06BFA2DE090F913305C
:104AC00001330ED1154B164A0093029200230122A6
:104AD00068468DF804308DF80C208DF80D30FFF706
:104AE000F7FD94F91000002180B202F006FF06F0F5
:104AF0007F012046FFF7AEFD29462046FFF7AAFDBD
:104B000094F91000012180B202F0F7FE94F91330FD
:104B1000013301D1FFF7D5FD04B070BD88A40D00AD
:104B200020A10700F8B590F83C509DF818609DF85A
:104B30001CE09DF8207061F3871562F3020563F3B2
:104B4000C50590F8403080F83C5066F3471380F874
:104B5000403090F838306EF3C503044667F3020323
:104B600080F8383006F00702F221FFF78DFF94F845
:104B70003820C2F3C20302F007019B0043EA41134D
:104B800043EAD2122046F521FFF77EFF94F83C203D
:104B9000C2F3C20302F007019B0043EA411343EA58
:104BA00092122046F421BDE8F840FFF76DBF30B502
:104BB000044690F91000421C85B003D1206802F031
:104BC000A5F922E0012180B202F097FE94F91000CD
:104BD000012180B202F080FE94F91300431C04D13D
:104BE000FFF720FD01F0D6FC0FE0012180B202F0BA
:104BF00073FE94F91100012180B202F06DFE94F968
:104C00001200002180B202F067FED0212046FFF79B
:104C10006DFE6028A06020D12046B622E021FFF77B
:104C200033FF4FF4967001F005FF2046FFF7B4FE06
:104C3000054608B16420F6E72046FFF7B4FE0523D9
:104C400000931A460321204602950195FFF76AFF5B
:104C5000642001F0EFFE012000E0002005B030BD2F
:104C6000772310B50371044602F0C8FE2060204689
:104C7000FFF79DFF30B9762323712046BDE8104031
:104C8000FFF795BF10BD01F09BB991F90E3000EE12
:104C9000103AB8EEC00A704791F90C3000EE103AA5
:104CA000B8EEC00A7047000008B58A7BCB891006B1
:104CB0005BBA9BB241BFCB7B02F07F0243EA022387
:104CC00007EE903A55BF07EE903AF8EEE77AF8EE25
:104CD000E77AF1EE677A17EE900A03F083F906A3FC
:104CE000D3E9002303F0D2F903F0B2FC00EE100A7E
:104CF00008BD00BFAFF300809A9999999999B93F7F
:104D000008B5888940BA80B207EE900AF8EEE77AD3
:104D100017EE900A03F066F905A3D3E9002303F028
:104D2000B5F903F095FC00EE100A08BDAFF3008062
:104D30009A9999999999B93F7047704710B5102180
:104D4000044602F08FFE204610BD10B51021044627
:104D500002F088FE204610BD10B58368044613B1EA
:104D6000032201469847204610BD0000044A4260D5
:104D70004FF47A7282601922C260024A0260704760
:104D8000ECA40D005CA50D00044A42604FF4FA62E9
:104D900082601922C260024A02607047F2A40D00CC
:104DA000DCA40D0010B501F00BF90A4B0A4C1846B3
:104DB000FFF7DCFF22460949184602F045FE084B82
:104DC0001846FFF7E1FF224606491846BDE81040A5
:104DD00002F03ABECCE30320B0E103203B4D0D00CE
:104DE000BCE30320394D0D00F0B5447EBDF81450EE
:104DF000022C08D0032C0FD0012C70D10489013C67
:104E0000A21A12B20CE04489013CA21A0489E41AE5
:104E1000611A12B209B262E04489E41A611A09B255
:104E2000002A5BDBB0F90840944240F390800029EF
:104E3000BEBF5B181BB20021B0F90A00CC18844237
:104E4000C4BF431A1BB2002B40F38180C9B2C8080B
:104E50003F4F02EBC01211F00701DBB207EB020477
:104E600017D0C1F10801C8B23A4983420E5C3FBF76
:104E7000C3EB000EFF2141FA0EF10E40B95C012D8B
:104E80000CBF3143B1438342B95460D3181AC3B243
:104E90008034072B17D9012D0CBFFF20002004F10F
:104EA00080011A46083AD2B2072A01F8800C01F1B3
:104EB0008001F7D8A3F10802C2F3C402013204EB67
:104EC000C21403F00703002B41D0234AD25C23789D
:104ED000012D0CBF134393432370F0BDF0BD002A96
:104EE00035DBB0F90A40944231DD0029BCBFC91856
:104EF0000BB2B0F90870B8BF0021CE18BE42C4BFD3
:104F0000631A1BB2002B22DDD01001EBC011104838
:104F100002F007020144012000FA02F28542D2B2F7
:104F200009D1013B1BB25C1C11D011F8010B1043DD
:104F300001F8010CF5E7D243D2B2013B1BB2581C79
:104F400005D011F8010B104001F8010CF5E7F0BD98
:104F50000CDD032004DD0320FCDC0320F0B5447EDF
:104F6000BDF81450022C08D0032C0FD0012C12D104
:104F70000489E41AA21A12B26DE00489013C611A94
:104F80004489E41AA21A09B212B204E04489013C2D
:104F9000611A09B25FE000295CDBB0F908408C427D
:104FA00040F39180002ABCBFD21813B2B0F90A00B6
:104FB000B8BF0022D4188442C4BF831A1BB2002B8E
:104FC00040F38180D4B2404EDAB2E30801EBC31162
:104FD00014F0070406EB010317D0C4F10804E0B293
:104FE0003A4C8242275C3FBFC2EB000EFF2444FADA
:104FF0000EF42740745C012D0CBF3C43BC4382423D
:10500000745460D3101AC2B28033072A17D9012D05
:105010000CBFFF24002403F1800011460839C9B2F7
:10502000072900F8804C00F18000F7D8A2F10801B0
:10503000C1F3C401013103EBC11302F00702002ADE
:1050400041D02349895C1A78012D0CBF0A438A4359
:105050001A70F0BDF0BD002935DBB0F90A408C4272
:1050600031DD002ABCBFD21813B2B0F90870B8BF46
:105070000022D618BE42C4BFA31A1BB2002B22DDE9
:10508000C81002EBC012104801F0070110440122C1
:1050900002FA01F19542C9B209D15A1E13B25C1C41
:1050A00011D010F8012B0A4300F8012CF5E7C94391
:1050B000C9B25A1E13B25A1C05D010F8012B0A406F
:1050C00000F8012CF5E7F0BD0CDD032004DD032022
:1050D000FCDC0320F8B50D1E064614461F463FDBD8
:1050E00000F0B7FB85423BDA002C39DB304600F09C
:1050F000B3FB844234DA304600F0A9FB022827D102
:105100003189708901390138491B001B0DB204B285
:1051100006E0012804D13389013B1B1B2C461DB23C
:105120000820012F94FBF0F000B20E4B04F00702B0
:1051300005EBC01104D197405A5C17435F54F8BD8A
:10514000585C012707FA02F220EA02025A54F8BD1D
:105150000328DED17389013B5B1B25461CB2DFE7C8
:10516000F8BD00BF0CDD032038B5402204460D46D3
:10517000802100F087FA064B2360FF23637784F8D1
:105180002130E377A37784F82050204638BD00BF54
:1051900074A50D004FF480620021014803F0F8BAB5
:1051A0000CDD032038B590F91D30013304460D465F
:1051B00028D090F92100012180B202F09EFB94F9E1
:1051C0001F00002180B202F098FB94F92100002119
:1051D00080B202F092FB94F822302BB1FFF722FA52
:1051E000294601F0E9FA05E02B460122A17F607F04
:1051F00002F0C6FB94F92100012180B2BDE83840DD
:1052000002F07BBB02F0FAFB94F91B1001F0B9FE2F
:1052100002F0F4FB036800219B68984702F0EEFB64
:10522000036829469B68984702F0E8FBBDE83840D0
:1052300001F0AEBE38B504460D46217790F91D3019
:10524000C276013337D090F91F00012180B202F0FD
:1052500043FB94F92100012180B202F03DFB94F858
:1052600022305BB994F91D00012180B202F034FBB9
:1052700094F91E00012180B202F02EFB94F8223036
:10528000EBB194F92100012180B202F036FBFFF767
:10529000C9F9012101F08FF9FFF7C4F9102101F0DC
:1052A00067FAFFF7BFF9002101F096F9FFF7BAF9A5
:1052B00001F070F903E002F0A1FB01F027FE94F980
:1052C0002000012180B202F007FB94F920000121A7
:1052D00080B202F012FB012001F0ACFB94F9200037
:1052E000002180B202F009FB0A2001F0A3FB94F92F
:1052F0002000012180B202F000FB2046AE21FFF722
:1053000051FF2046D521FFF74DFF20468021FFF7B2
:1053100049FF2046A821FFF745FF20463F21FFF720
:1053200041FF2046D321FFF73DFF20460021FFF734
:1053300039FF20464021FFF735FF8D212046FFF73A
:1053400031FF012D0CBF102114212046FFF72AFF49
:1053500020462021FFF726FF20460021FFF722FFED
:105360002046A121FFF71EFF2046C821FFF71AFFA4
:105370002046DA21FFF716FF20461221FFF712FF21
:1053800081212046FFF70EFF012D0CBF9F21CF2169
:105390002046FFF707FFD9212046FFF703FF012D25
:1053A0000CBF2221F1212046FFF7FCFE2046DB2125
:1053B000FFF7F8FE20464021FFF7F4FE2046A42127
:1053C000FFF7F0FE2046A621FFF7ECFE2046AF21B6
:1053D000BDE83840FFF7E6BE2DE9F0412121044643
:1053E000FFF7E0FE00212046FFF7DCFE7F2120468C
:1053F000FFF7D8FE22212046FFF7D4FE00212046E9
:10540000FFF7D0FE07212046FFF7CCFE94F91D30B0
:10541000DFF8BC80013335D094F92100012180B23E
:1054200002F06BFA94F91F00012180B202F065FAD4
:1054300094F92100002180B202F05FFA012000F00F
:105440005FFE002594F8223018F805602BB1FFF7B5
:10545000E9F8314601F0B0F905E033460122A17FB9
:10546000607F02F08DFA0135B5F5806FEAD1012039
:1054700000F046FE94F92100012180B2BDE8F04120
:1054800002F03BBA002502F0B9FA94F91B1001F0C2
:1054900078FD02F0B3FA036840219B689847002624
:1054A00002F0ACFAAF190368BFB29B6818F8071096
:1054B00001369847102EF3D1103502F09FFAADB2A5
:1054C00001F066FDB5F5806FDDD1BDE8F08100BF6C
:1054D0000CDD032000F074BD2DE9F04F85B01E46B1
:1054E000BDF93830BDF83CA015469A1A002AB8BF5D
:1054F00052420092721A002AB8BF524201920C46E0
:10550000009A01998A42814605DD32461E461346BD
:1055100022462C461546B44205DD2A461D46134652
:105520002246344616465A1B002AB8BF5242C4EBE4
:1055300006089D42B4BF01234FF0FF331FFA88F8DD
:10554000029303920FFA88F7022297FBF2F7B44214
:105550001FDC019A009B9342D9F80030C8BF224655
:10556000D3F810B0C8BF29465346DCBF2A462146AF
:105570004846D847039BFF1ABBB21FB2002F05DA7B
:10558000029A08EB030715442DB23FB2013424B24E
:10559000DDE705B0BDE8F08F2DE9F347BDF82C60DD
:1055A0000768BDF928A000960446FF6991460D469C
:1055B0009846B847236800960AF1FF324A44DF69EB
:1055C00029464346204612B2B847236800969F6991
:1055D0004A46534629462046B84723680A9608F1AA
:1055E000FF3129449D694A46534609B22046AC46DC
:1055F00002B0BDE8F047604737B5013B134404688B
:10560000BDF8185001951BB2009364690B46A04782
:1056100003B030BD37B5BDF8185004688DE82400DC
:10562000013B0B4464691BB2A04703B030BD2DE9B8
:10563000F347BDF92880BDF82C90054617460C4667
:1056400001EB030A54450BDA2B68CDF800909E69F4
:10565000214643463A4628460134B04724B2F1E792
:1056600002B0BDE8F08713B5B0F90E2004680191CF
:1056700000920022B0F90C30646A1146A04702B0D3
:1056800010BD704730B501810024084D42818181F1
:10569000C2814FF6FF7101224460056044760482A6
:1056A00044820276C1828182827630BDACA50D0033
:1056B0002DE9F04F8FB005460691BDF860100791B7
:1056C000BDF864100891B0F90C1006989DF8688038
:1056D00081427CDDB5F90E10914278DD062111FB87
:1056E0000800002873DD02EBC80000286FDD03EB23
:1056F000830396B20C9306F108039BB20991002430
:105700000D93052C1CBF334B0C9A059616BF1B1925
:105710004FF0000913F8029004961FFA88F30393E0
:10572000039ABDF8183004FB023213FA84F312B264
:105730001BB20A9237460FFA88FA0B9319F0010F41
:1057400011D0B8F1010F2B6803D1D3F810B0079B2B
:1057500014E0079A0192CDF800A0D3F824B0BDF967
:105760001020534618E0079B089A934217D0B8F1CF
:10577000010F2B6807D1D3F810B013463AB20B993A
:105780002846D8470BE0089A0192CDF800A0BDF951
:105790001420D3F824B053460A992846D847049BCE
:1057A000039A13449BB20493059B13449BB20137A5
:1057B00005930D9BBFB29F424FEA5909BED1099B89
:1057C000013B013413F0FF0364B2099399D10FB088
:1057D000BDE8F08FDCA50D0030B50A2985B0044680
:1057E0000B4604D1027E438A03EBC20323E00D295A
:1057F00024D0057EB0F91220B0F910100295C58AA8
:105800000195858A0095FFF753FF227E238A91B286
:1058100001EB410003EB4003A07E1BB2238268B181
:10582000B4F90C006FF0050505FB0202934205DD9B
:10583000638A03EBC103638200232382012005B046
:1058400030BD018242827047C18281827047407EB2
:105850007047B0F90C007047B0F90E00704700F0C7
:10586000AFBB08B5D0F8D00003681B6B9847003079
:1058700018BF012008BDF8B506460F461446C4B14E
:10588000D6F8D00003681B6B984708B90020F8BD14
:10589000D6F8D000FA2C03682546A8BFFA25DB68A5
:1058A0002A463946984780B2241A8542A4B2E6D0E7
:1058B000ECE70120F8BD2DE9F843064688469146FD
:1058C0001F461D460024D6F8D00003681B6B98477E
:1058D000D0B1002D18DBD6F8D00003681B699847BB
:1058E00060B1D6F8D00003685B69984708F80400F7
:1058F0000134A4B24C4507D03D46ECE70A3D0A20EE
:105900002DB201F097F8DEE72046BDE8F88370B5C8
:10591000044600F1220596220021284602F038FFB5
:105920006168284602F064FFD4F8D0002289036839
:1059300029465E6A0023B047003018BF012070BDC1
:1059400010B50446D0F8D00003681B6B984720B10F
:10595000D4F8D0000368DB6A9847012010BD70B509
:1059600003689B6804469847C8B9204600F097FA38
:10597000042570B1013D15F0FF050AD0204600F066
:10598000B7F841F2883001F055F8204600F087FA68
:10599000EFE7236820469B68BDE87040184770BD5C
:1059A00000F00EBB70B5044608460E4602F028FF14
:1059B00003122370607085B202342A4631462046B5
:1059C00002F05FFF601970BD30B50361039B0D4DA0
:1059D000028143610C4A056000234160C260C0F847
:1059E000BC30C0F8C030C0F8C430C0F8C830C0F80F
:1059F000CC308361C36180F8203080F82130A0F87A
:105A0000B83030BD04AB0D0053AB0D002DE9F74F9E
:105A10000FFA83FA036801929D69012253460646F4
:105A20000C46A847C0B2012801D0002034E0651C14
:105A300004F1050B80464FF0000933689B69012291
:105A40001F46294653463046B847C0B20128ECD11C
:105A500015F8013B03F07F025D4502FB08994FEA10
:105A6000C818E2D01B06E8D4019B2C1B1B1B013B72
:105A70009945336806D9019A9F69013A121B53462A
:105A800092B203E09F691FFA89F2534629463046D5
:105A9000B847C0B2204480B203B0BDE8F08F000028
:105AA000F8B505460C4616461F463B46962221464B
:105AB0002846FFF7ABFF48B12378B6EB131F05D09C
:105AC00001F03EF9024900F03EFFEEE7F8BD00BFED
:105AD00054AB0D000231C9B209299ABF024B53F8E9
:105AE00021000248704700BF20AB0D0065AB0D00E0
:105AF00010B5E02380F82230002380F823300368BB
:105B000004465B69022200F122019847236820467F
:105B10001B69BDE81040184700F1B80230B51346C4
:105B200000F1CC0453F8045F8D420FD0A342F9D1A9
:105B3000002352F8044F24B900EB8300C0F8BC10D6
:105B400004E00133052BF4D1002030BD012030BD2D
:105B50002DE9F04F00F122098BB287B09622494619
:105B60000446FFF753FF064610B394F82570BBB206
:105B7000019304F1260304F1B80A002502935AF8B0
:105B800004BFBBF1000F0ED0DBF8001003910846F4
:105B900002F036FEB8428046039904D13A46029894
:105BA00002F036FE28B10135052DE8D100204AE08B
:105BB00049E094F822A00AF0060ABAF1020F3FD198
:105BC000E21992F8267092F8272042EA0727142259
:105BD00000210BF1050002F0DBFD019BC3F57F40C6
:105BE000FC30064404EB8505CAEB0606B6B2152E5A
:105BF000D5F8BC0008F1040128BF132651443246F1
:105C00004944053002F0A9FDD5F8BC305E8394F814
:105C1000223003F00603022B0FD18DF815303B1212
:105C20008DF8163023688DF8177040228DF81420F7
:105C30005B69042205A920469847D5F8BC0002E01C
:105C400007468246C3E707B0BDE8F08F2DE9F84369
:105C500004460D464FF000084FF0C00900F122073E
:105C6000D5B1236884F8229084F823805B690222EE
:105C7000394620469847064610B9013DEDB2EFE798
:105C80004FF4FA730D2239462046FFF709FF94F8C6
:105C90002230D02BF1D100E02E463046BDE8F8830B
:105CA00038B504460846102300F8023B0D46294942
:105CB000FFF778FE0423037002234370A369ABB19E
:105CC0001B789BB10623437094F82030012B01D13F
:105CD0000E2302E0022B01D11E23437094F82130E1
:105CE000012B02BF437843F02003437023691B78E4
:105CF0001BB1437863F07F03437063691B781BB16A
:105D0000437843F040034370012383702C23C37016
:105D1000E1680B781BB10430FFF744FE02E0037129
:105D200043710630A16931B10B7823B1FFF73AFE18
:105D3000E169FFF737FE21690B780BB1FFF732FEFF
:105D400061690B780BB1FFF72DFE401BC0B2831EBB
:105D50006B7038BD73AB0D002DE9F8430546104656
:105D60000E4691461F4602F04BFD9DF82480BDF87B
:105D7000204080B2B8F1000F01D1831C00E0031D68
:105D80004FEA480230469BB242F03002234400F80A
:105D9000012B9BB203F07F02DB0918BF42F08002A7
:105DA00000F8012B002BF5D14946FFF7FBFD034618
:105DB000B8F1000F0CD0B5F8B820120A0270B5F88F
:105DC000B8204270B5F8B82001320233A5F8B820E7
:105DD00022463946184602F0C0FC2044801B80B29F
:105DE000BDE8F88373B59DF8186000F122050446FC
:105DF0008DE8480013460A462946FFF7ADFF2368A1
:105E000002465B6929462046984708B9002017E0FA
:105E1000B6B14FF4FA73962229462046FFF7F6FDF5
:105E20000428F3D194F822301B11042BEED1A38C5B
:105E3000B4F8B8005BBA01339BB2C31A5842584158
:105E400002B070BDF7B5054610461F460E46144613
:105E500002F0D6FC009783B2224631462846FFF76F
:105E6000C1FF03B0F0BD38B51D4682230B700C4650
:105E7000B0F8B810090AA170B0F8B830E370B0F803
:105E8000B8100131A0F8B8101146201DFFF78AFDA7
:105E900000F8015B001BC0B2831E637038BD2DE9A2
:105EA000F0410368DB680446984718B94FF0FF30AB
:105EB000BDE8F08104F1220529462046FFF7F0FEF7
:105EC000236882B25B692946204698470028EDD0B6
:105ED00041F27073962229462046FFF797FDC0B223
:105EE0000428E3D1638CB3F5087FDFD194F8250053
:105EF00010B140B2BDE8F08104F1B80704F1CC085C
:105F000057F8043FFBB103263A6829461379126813
:105F10002046FFF7A8FF236882B25B692946204626
:105F200098470028C2D04FF4FA7309222946204628
:105F3000FFF7B6FD38B9013E16F0FF06E4D16FF069
:105F40000100BDE8F0814745DAD10020BDE8F081CD
:105F500010B580E80600037210BD1FB504460A2282
:105F6000084601A900F05AFC237A01AA94E803002C
:105F7000FFF768FF04B010BDFFF7EFBF10B5037166
:105F80000023416302604383C3614362036283620F
:105F9000C362036310BD00F013B800F011B8000035
:105FA00008B5024B1B689B68019308BD680203009B
:105FB00008B5024B1B68DB68019308BD680203004B
:105FC00008B5024B1B681B68019308BD2C02030037
:105FD00008B5024B1B685B68019308BD2C020300E7
:105FE00008B5024B1B689B68019308BD2C02030097
:105FF00008B5024B1B68DB68019308BD2C02030047
:1060000008B5024B1B681B69019308BD2C020300F5
:1060100008B5024B1B685B69019308BD2C020300A5
:1060200008B5024B1B681B6B019308BD2C020300D3
:1060300008B5024B1B681B68019308BD30020300C2
:1060400008B5024B1B689B68019308BD3002030032
:1060500008B5024B1B68DB68019308BD30020300E2
:1060600008B5024B1B681B69019308BD3002030091
:1060700008B5024B1B685B69019308BD3002030041
:1060800008B5024B1B68DB69019308BD30020300B1
:1060900008B5024B1B681B6A019308BD3002030060
:1060A00008B5024B1B685B6A019308BD3002030010
:1060B00008B5024B1B68DB6B019308BD300203007F
:1060C00008B5024B1B681B6C019308BD300203002E
:1060D00008B5024B1B685B6C019308BD30020300DE
:1060E00008B5024B1B685B69019308BD6C02030095
:1060F00008B5024B1B685B68019308BD18020300DA
:1061000008B5024B1B68DB68019308BD1802030049
:1061100008B5024B1B685B69019308BD18020300B8
:1061200008B5024B1B689B68019308BD4802030039
:1061300008B5024B1B681B69019308BD48020300A8
:1061400008B5024B1B685B69019308BD4802030058
:1061500008B5024B1B685B6C019308BD4802030045
:1061600008B5024B1B689B6C019308BD48020300F5
:1061700008B5024B1B685B69019308BD640203000C
:1061800008B5024B1B681B6A019308BD640203003B
:1061900008B5024B1B689B6A019308BD64020300AB
:1061A00008B5024B1B681B68019308BD3C02030045
:1061B00008B5024B1B68DB68019308BD3C02030075
:1061C00008B5024B1B681B69019308BD3C02030024
:1061D00008B5024B1B685B69019308BD3C020300D4
:1061E00008B5024B1B689B69019308BD3C02030084
:1061F00008B5024B1B68DB69019308BD3C02030034
:1062000008B5024B1B681B6A019308BD3C020300E2
:1062100008B5024B1B689B6A019308BD3C02030052
:1062200008B5024B1B68DB68019308BD2802030018
:1062300008B5024B1B689B69019308BD2802030047
:1062400008B5024B1B68DB69019308BD28020300F7
:1062500008B5024B1B681B6A019308BD28020300A6
:1062600008B5024B1B685B6A019308BD2802030056
:1062700008B5024B1B689B6A019308BD2802030006
:1062800008B5024B1B68DB6A019308BD28020300B6
:1062900008B5024B1B681B6B019308BD2802030065
:1062A00008B5024B1B685B6B019308BD2802030015
:1062B00008B5024B1B681B6C019308BD2802030044
:1062C00008B5024B1B681B6D019308BD2802030033
:1062D00008B5024B1B689B69019308BD3802030097
:1062E00008B5024B1B68DB69019308BD3802030047
:1062F00008B5024B1B681B6A019308BD38020300F6
:1063000008B5024B1B689B6A019308BD3802030065
:1063100008B5024B1B681B6B019308BD38020300D4
:1063200008B5024B1B689B6B019308BD3802030044
:1063300008B5024B1B681B68019308BD4C020300A3
:1063400008B5024B1B681B69019308BD4C02030092
:1063500008B5024B1B685B69019308BD4C02030042
:1063600008B5024B1B689B69019308BD4C020300F2
:1063700008B5024B1B68DB69019308BD4C020300A2
:1063800008B5024B1B681B6A019308BD4C02030051
:1063900008B5024B1B685B6B019308BD60020300EC
:1063A00008B5024B1B681B6D019308BD600203001A
:1063B00008B5024B1B685B68019308BD200203000F
:1063C00008B5024B1B685B69019308BD20020300FE
:1063D00008B5034B1B68D3F88830019308BD000053
:1063E0002002030008B5034B1B68D3F894300193D7
:1063F00008BD00002002030008B5024B1B685B6863
:10640000019308BD4002030008B5024B1B689B685E
:10641000019308BD4002030008B5024B1B68DB680E
:10642000019308BD4002030008B5024B1B681B69BD
:10643000019308BD4002030008B5024B1B685B696D
:10644000019308BD4002030008B5024B1B689B691D
:10645000019308BD4002030008B5024B1B68DB69CD
:10646000019308BD4002030008B5024B1B681B6A7C
:10647000019308BD4002030008B5024B1B681B6B6B
:10648000019308BD4002030008B5024B1B685B6B1B
:10649000019308BD4002030008B5024B1B68DB6B8B
:1064A000019308BD4402030008B5024B1B681B683A
:1064B000019308BD1C02030008B5024B1B685B6812
:1064C000019308BD1C02030008B5024B1B685B6A00
:1064D000019308BD1C02030008B5024B1B681B6B2F
:1064E000019308BD1C02030008B5024B1B68DB6B5F
:1064F000019308BD1C020300002211464068FFF70B
:10650000B3BF002211464068FFF7BEBF00224068BB
:10651000FFF7B2BF002281F001014068FFF79CBF86
:1065200000231A4619464068FFF78EBF00231A461B
:1065300019464068FFF780BF002211464068FFF708
:1065400073BF002211464068FFF75EBF00220221A0
:106550004068FFF761BF00231A464068FFF74CBF51
:10656000024B03225A60024A1A607047DCE30320A0
:1065700044AD0D000021FFF7A3BD0021FFF7A8BD2A
:1065800010B5044601700846FFF77AFD00236360EA
:10659000204610BD10B504460078FFF7EBFF48B960
:1065A00020784FF6FF71FFF743FD2078BDE81040DB
:1065B000FFF7E3BF10BD38B5044600780D46FFF77E
:1065C000D9FF40B920782946FFF73AFD2078BDE889
:1065D0003840FFF7D2BF38BD38B5044600780D46C5
:1065E000FFF7C8FF40B920782946FFF731FD207832
:1065F000BDE83840FFF7C1BF38BD0078FFF7BDBF29
:10660000400830B51860002418688842E5B206D901
:106610000134082C02D040081860F5E70725024B2A
:106620005B5D137030BD00BF70AD0D002DE9F04310
:1066300007468FB000780E46FFF79CFF002862DB0C
:106640003C781422002109A802F0A2F80B2320466E
:10665000002209A9ADF82430FFF722FD9DF82D4056
:1066600054B19DF82C5035B9DDF830809DF8349048
:106670009DF8354003E00024A146A046012533796A
:1066800005B1BBB99D420BD1B268424508D18DF826
:1066900020908DF82140BDF82010B289914209D098
:1066A00053B10024387801940094234622460121F6
:1066B000FFF7FEFC002026E08DF80F30B1680A9845
:1066C00004AB0DF10F02FFF79BFF317905B1B1B9B2
:1066D000A94208D0002438780194747B337B9DF85C
:1066E0000F200094E4E7B3684345F3D38DF820907E
:1066F0008DF82140BDF82020B3899A42EAD1049B4D
:106700004345E7D1D6E70FB0BDE8F0832DE9F0416E
:1067100088B000230446007802930E461746FFF720
:1067200029FF054600BB94F800800146142203A807
:1067300002F02EF80B232A4603A94046ADF80C3090
:10674000FFF7AEFC02AB0DF1070207FB06F1049860
:106750008DF80750FFF754FF20789DF80710FFF7DA
:106760007FFC2078FFF709FF029808B0BDE8F081B0
:1067700038B5044600780D46FFF7FCFEC8B96168DD
:1067800071B10C4BC25CAA4202D001300828F9D189
:106790000130C0B2C14001222046FFF7B7FF03E03D
:1067A00029462078FFF75CFC2078BDE83840FFF7E9
:1067B000E4BE38BD70AD0D0008B50078FFF758FC99
:1067C000C0B208BD0078FFF763BC10B5044600688E
:1067D00018B1FFF771FE0023236010BD10B5044609
:1067E000FFF7F3FF204610BD10B5094C00204FF60F
:1067F000FF732060A080A07120816381FFF7D8FD26
:106800002046044A0449BDE8104001F01DB900BF0C
:10681000E4E30320B0E10320DD670D002DE9F04142
:10682000931E232B15468CB034BF15460A25002332
:106830000A2D0C468DF82C3007D1984205DA2D230D
:1068400001F101080B70404201E0B0B1A0460DF12A
:106850002B0601272A46014601A801F05BFF029B97
:106860000198092BCCBF3722302252FA83F306F865
:10687000013901370028EDD106E030238DF82B30A7
:10688000A0460DF12A0602273A46711C404601F047
:1068900059FF20460CB0BDE8F08110B504460068F1
:1068A00008B1FFF75DFC204610BD000010B5064C96
:1068B000002320462360FFF74BFC2046034A04498F
:1068C000BDE8104001F0C0B8F0E30320B0E10320C0
:1068D0009B680D00F8B506460D468F180024BD4292
:1068E0000CD0336815F8011B9B6830469847002888
:1068F00001DB0444F3E7002C08BF04462046F8BD42
:1069000070B505460C46084649B101F079FF2B6881
:10691000024621462846DB68BDE87040184770BD36
:1069200008B5FFF7EDFF08BD03689B68184738B549
:106930000D210546FFF7F8FF0A2104462846FFF718
:10694000F3FF204438BD38B50546FFF7D9FF0446AC
:106950002846FFF7ECFF204438BD30B58BB00B461E
:1069600000218DF82410012A98BF0A220DF123047A
:10697000B3FBF2F505FB123303F0FF03092B94BFC1
:1069800030333733DBB2214604F801392B46002D72
:10699000EED1FFF7B5FF0BB030BD0CB42DE9F043DD
:1069A00087B000AF07F13804054654F8049B3C60FB
:1069B0000E4623464A461421381DFFF785FD13284D
:1069C00005D8391D2846FFF79BFF044613E000F168
:1069D000080323F00703E846ADEB030D411C2346F3
:1069E0004A4668463C60FFF76FFD69462846FFF758
:1069F00087FF0446C5461EB12846FFF798FF0444AA
:106A000020461C37BD46BDE8F04302B07047000089
:106A1000014B024A1A607047F4E30320EBAD0D000E
:106A2000024B1A68024B1A60704700BF0CE103204A
:106A3000F8E303200021FFF7C3BC10B50446FEF7BE
:106A40008BF9204610BD00000348044A0449002386
:106A5000836000F0F9BF00BFFCE30320B0E1032036
:106A60003B6A0D0008B50C4B33B100F069F90368BF
:106A70001B699847002809DC084B63B100F0E2F974
:106A800003681B699847002803DC08BDAFF300804A
:106A9000F2E7AFF3008008BD000000000000000036
:106AA00008B5FFF7DFFFFFF733FB014B186008BDA8
:106AB00030E703200248034A0349121A01F042BE9C
:106AC00000F4032004F4032050B30D0007B50023A5
:106AD00000931A466FF07701FFF784FC03B05DF86E
:106AE00004FB000007B543880A2B08D0502B09D1BE
:106AF000094B1B683BB103B05DF804EB1847FFF787
:106B0000E5FF06E0002300931A466FF07701FFF7D8
:106B100069FC03B05DF804FB0CE4032038B5104CAD
:106B2000104D2368AB42104B0CBF012200221A709B
:106B300002D0FFF7BFFF2560FFF7DAFA044601F045
:106B40002FFE0A4B13B12046AFF300800021074807
:106B5000FFF7A2FC00210648BDE83840FFF738BC2B
:106B600000F403201E1C279A10E4032000000000FC
:106B7000E56A0D00704710B51821044600F072FF59
:106B8000204610BDF0B5037D062B8DB00E4600F1FA
:106B900004074FF0000402D000F1080518E00CAD26
:106BA000394605F8304D2F232A460A20FFF7E0FA30
:106BB000284601F025FE33680246DB682946304648
:106BC00098470FE024B12E213046FFF7ADFE044474
:106BD00015F8011D0A223046FFF7BFFEBD420444EE
:106BE000F0D120460DB0F0BD10B5054B0446112282
:106BF00040F8043B002101F0CBFD204610BD00BF52
:106C00007CAE0D000346074A10B543F8042B01F192
:106C1000100251F8044B43F8044B9142F9D10A7821
:106C20001A7010BD7CAE0D00037D042B01D14068AD
:106C300008E0062B0AD1436853B9836843B9C36897
:106C400033B90069003018BF012070470020704739
:106C50000120704710B59DF8084044EA032343EA39
:106C6000024242EA016104234160037510BD37B559
:106C70000D788B784A78C97800912946FFF7EAFFAA
:106C800003B030BD41747047704708B50021007CE7
:106C9000FFF766FB30EA200028BF4FF0FF3008BD49
:106CA00008B50121007CFFF75BFB30EA200028BF1C
:106CB0004FF0FF3008BD08B5007CFFF749FB20EA24
:106CC000E07008BD08B5007CFFF73AFB20EAE070F1
:106CD00008BD007CFFF754BB10B51421044600F03A
:106CE000C1FE204610BD38B50446007C0D46FFF7B6
:106CF0002FFB002801DC607C28B12946207CFFF7AF
:106D000037FB20EAE07038BD10B50446002363600D
:106D10004FF47A73A360054B236001230846217466
:106D200063741146FFF704FB204610BD90AE0D00C2
:106D300010B514220446002101F02AFD204610BDA2
:106D400030B50E4D87B001A8FFF7F2FF296811F0AA
:106D5000010410D12846FDF7B1F960B101AA21461E
:106D60000748FFF7D1FF2846FDF7ADF9054A064968
:106D7000034800F069FE024807B030BD14E4032068
:106D800018E40320B0E10320896C0D0070474174C2
:106D9000704708B5007CFFF73BFA20EAE07008BDB9
:106DA00008B5007CFFF70CFA20EAE07008BD08B5D2
:106DB000007CFFF715FA30EA200028BF4FF0FF30C3
:106DC00008BD08B5007CFFF703FA30EA200028BFB1
:106DD0004FF0FF3008BD007CFFF70ABA10B5142150
:106DE000044600F03FFE204610BD70B5457C0446C9
:106DF0000E4625B9007CFFF70BFA002805DD314669
:106E0000207CBDE87040FFF7D3B9284670BD000074
:106E100010B5044608461146002262604FF47A72AB
:106E2000A260054A22600122207462741A46FFF7AC
:106E3000B7F9204610BD00BFC0AE0D00007CFFF7C3
:106E4000DFB9000038B50C4D296811F0010411D1EB
:106E50002846FDF733F968B1084A094B094821462D
:106E6000FFF7D6FF2846FDF72EF9074A07490548E0
:106E700000F0EAFD034838BDC4E40320C8E4032061
:106E800040E403202CE40320B0E103208D6D0D00CD
:106E90007047F8B5064615460C468F18BC4206D01A
:106EA000336814F8011B9B6830469847F6E728467C
:106EB000F8BD0022007CFFF7CBB90021007CFFF772
:106EC000CFB90021007CFFF7D3B90021007CFFF788
:106ED000D7B90021007CFFF7DBB910B514210446B7
:106EE00000F0C0FD204610BD10B5044600236360CD
:106EF0004FF47A73A360044B217408462360114653
:106F0000FFF7D6F9204610BDF0AE0D0000231A465B
:106F10001946007CFFF784B970B50C4686B014257D
:106F200006462A46002101A801F032FC23788DF89C
:106F3000083063680393E36804930022237A307C6B
:106F4000ADF8045001A90593FFF7BAF906B070BD7A
:106F50001FB500338DF800104FF06401039118BF86
:106F60000123694601928DF80830FFF7D5FF05B07F
:106F70005DF804FB0123FFF7EBBF0022007CFFF765
:106F800057B9C9B2FFF7F9BF0022007CFFF758B923
:106F90000121FFF7F9BF0021007CFFF781B9002232
:106FA00011464068FFF760BA002211464068FFF7BB
:106FB0006BBA00224068FFF75FBA002281F001013E
:106FC0004068FFF749BA00231A4601214068FFF7DD
:106FD0003BBA00231A4619464068FFF72DBA002233
:106FE00011464068FFF720BA002211464068FFF7BB
:106FF0000BBA002202214068FFF70EBA00231A469E
:107000004068FFF7F9B938B5054688B104684CB156
:10701000A3681BB103222146204698471021204631
:1070200000F020FD28461421BDE8384000F01ABDCC
:1070300038BD10B103685B681847704710B5036826
:107040000446BBB15868FFF76BF878B923685A7CDF
:1070500012B95868FFF76CF823685868FFF770F8A2
:1070600020680023236028B1FFF7CDFF206808B116
:10707000FFF7C9FF204610BD38B50446D0F8C4015B
:1070800008B1FDF70EF8D4F8C00108B1FFF768F8B1
:10709000D4F8BC5135B12846FFF7D0FF042128466B
:1070A00000F0E0FC206808B1FFF7C3FF204638BDC0
:1070B00010B5044B044640F8083BFFF7DDFF2046BF
:1070C00010BD00BF18AF0D0038B50E4C0E4B23603D
:1070D0000025022304F5E4706360A560C4F8C45180
:1070E000C4F8C851FFF734F8084BC4F8CC5184F801
:1070F000D05123602046064A0649BDE8384000F0DA
:10710000A3BC00BF4CE5032000B00D0018AF0D007C
:10711000B0E10320B1700D0037B502AC036804F88C
:10712000011DDD6B01224FF0FF332146A84703B05C
:1071300030BD10B40368DC6B4FF0FF33A4465DF83C
:10714000044B604737B502AC036804F8011DDD6BE2
:10715000214613460122A84703B030BD704738B519
:1071600043691A68002A044605DAB3F88620B3F8A2
:1071700084309A4201D001250BE003681B699847CF
:10718000002814BF0125002503D123682046DB6AAF
:107190009847284638BD43691868C043C00F7047F8
:1071A00070470020704710B51421044600F05AFCC7
:1071B000204610BDFCF773BF7FB516460022426023
:1071C000029203925A1C04460D4608D04FF47A727C
:1071D000B3FBF2F1029102FB11314A430392606961
:1071E0000823009341F205026B4440F6FF710068EA
:1071F000FFF76EF8002808DB606900233246294655
:107200000068FFF785F8002804DAFFF76DF90368D6
:107210006360002004B070BD10B5036804469B682D
:107220009847A368013BA3602BB923682046DB681D
:10723000BDE81040184710BD70B504464D69054BB8
:1072400044F8043B8C3506460FCD0FC42B682370E1
:10725000304670BD7CAE0D0010B54369B3F8862092
:10726000B3F884309A42044605D06269B2F884309B
:107270001344187910BD03681B6998470028F4D19E
:107280004FF0FF3010BD10B54369B3F88620B3F856
:1072900084309A42044608D06269B2F88430591C9E
:1072A0001344A2F88410187910BD03681B6998472D
:1072B0000028F1D14FF0FF3010BDF8B543691746F3
:1072C000B3F88620B3F884309A4205460E4606D1BC
:1072D00003681B69984710B94FF0FF3414E06969DF
:1072E000B1F88430B1F88640E41ABC4228BF3C466D
:1072F000194422460431304601F024FA6A69B2F892
:1073000084302344A2F884302046F8BD2DE9F043B0
:107310009846036893B0DB6A0D46064617469847C1
:1073200012AB002443F8484D224621462846FEF77A
:107330003FFE814600283DD1009B002B56D05B6963
:10734000002B53D006A8FFF74FFC009B5C696378C5
:10735000022B01D1211D13E00A2B14D11122494621
:1073600001A801F015FAA36833BBE36823BB4FF60D
:10737000FF702569FEF704FF85421DD104F1140159
:1073800006A8FFF774FC06A8FFF74EFC00282DD0D6
:10739000336807ADD3F82090184B0C930FCD0DAC8C
:1073A0000FC42B6823703A4643460CA93046C847A1
:1073B00081461BE0A14619E004F1080301AD183431
:1073C000186859682A4603C20833A3421546F7D104
:1073D000062301A90CA80DAD8DF81430FFF712FC9F
:1073E0000FCD07AC0FC42B682370CCE70098FEF7D5
:1073F000D7FD484613B0BDE8F08300BF7CAE0D005A
:1074000042690023A2F884304269A2F886307047AE
:107410002DE9F0411E4603680C468AB0DB6A05463A
:1074200017469847237DD5F81480042B0CBF022003
:107430000A2006220121FEF773FFC8F800006B69DD
:107440001B68002B18DB2846FFF7DAFFD6B10023B4
:1074500003A9F0B20393ADF81030FEF741FE58B91E
:1074600068690623009341F20B0203AB40F6FF71FB
:107470000068FEF72DFF28B12B682846DB6A002440
:1074800098473BE01C263246002103A801F080F912
:10749000237D8DF80C60042B0CD1022338468DF827
:1074A0000D30FEF775FEADF80E006068FEF768FE61
:1074B000049013E00A2338468DF80D30FEF768FE7D
:1074C00005AEADF80E00231D04F1140718685968C5
:1074D000324603C20833BB421646F7D16B691C2201
:1074E00003A91868FEF704FF0028C5D104340FCCA7
:1074F0006D698C350FC523682B70012420460AB0B6
:10750000BDE8F08110B5436904461868002801DB26
:10751000FEF7E6FE63694FF0FF321A6060691122E0
:1075200000218C3001F034F92046BDE81040FFF70F
:1075300067BF000030B54269B2F886308BB00446B0
:107540001BB1B2F884209A4240D0636918680028C1
:107550003FDBB3F886507F2D3BD8191DC5F1800263
:1075600008232944FEF7CCFE00280CDD6369B3F83C
:1075700086200AB9A3F884206269B2F886301844DC
:10758000A2F8860025E0FEF7AFFF03680B2B20D0A2
:10759000FEF7AAFF03680B2B1BD0202300250293C4
:1075A0000395FEF7A1FF036801930E4B009302AA17
:1075B0002B460D493220FEF7F3FE63691868FEF78B
:1075C0008FFE63694FF0FF321A6002E0FFF718FF89
:1075D000BBE76269B2F88630B2F88400181A0BB0C3
:1075E00030BD00BFB3AF0D00ACAF0D0010B5002330
:1075F00004460160A0F88430A0F886308830FFF798
:10760000F3FA204610BD00004FF47A7270B50023E3
:107610008260144A43600260436183610446A02093
:107620000E46FCF73AFD054610B13146FFF7DEFF86
:107630001420FCF732FD034628B10122426082602B
:10764000094A02600561A0696561A36128B14368C8
:10765000013B43600BB9FFF7DFFD2046FFF7D0FE8B
:10766000204670BD68AF0D004CAF0D0010B54FF057
:10767000FF310446FFF7C8FF204610BD10B5044691
:107680000068002801DBFEF72BFE204610BD10B578
:1076900004692046FFF7F2FF24B12046BDE8104000
:1076A000FCF7FDBC10BD002211464068FEF7BCBED1
:1076B000002211464068FEF7D7BE002211464068FE
:1076C000FEF7E2BE00224068FEF7D6BE002281F03F
:1076D00001014068FEF7C0BE00231A461946406803
:1076E000FEF7B2BE00231A4619464068FEF7A4BE54
:1076F000002211464068FEF787BE00220221406842
:10770000FEF78ABE00231A464068FEF775BE0000E9
:10771000024B04225A60024A1A60704720E7032095
:10772000CCAF0D0000231A464068FEF765BE00226C
:1077300002214068FEF770BE002211464068FEF745
:1077400063BE002211464068FEF76EBE00231A4653
:1077500019464068FEF770BE00231A461946406875
:10776000FEF772BE002281F001014068FEF774BE90
:1077700000224068FEF780BE002211464068FEF7F6
:1077800083BE002211464068FEF76EBE2DE9F0432D
:10779000002495B016460D460746FFF725FA214608
:1077A00020220CA8009400F0F3FF40230C93214604
:1077B0006B460CAA3046FEF7FBFB0446002844D17A
:1077C000024601216868FEF72FFE0221804622460C
:1077D0006868FEF729FE009E81462146002E34D0BF
:1077E000002932D17368022B02D00A2B09D02AE07B
:1077F000B8F1000F27D0716938460431FFF737FA26
:1078000020E0B9F1000F1ED07469112201A800F028
:10781000BFFF06238DF8143001AD04F108031834BE
:10782000186859682A4603C20833A3421546F7D19F
:1078300001A906A807ADFFF7E5F90FCD3C1D0FC460
:107840002B6823700121F669C8E70098FEF7A8FBB2
:10785000384615B0BDE8F083024B034A1A60002297
:107860005A60704728E7032000B00D0070B5184E2D
:10787000316811F0010504460AD13046FCF71EFCC0
:1078800030B129461348FEF77BFE3046FCF71BFC5F
:107890001048FEF797FF28B1A4F10B03022B01D883
:1078A000002070BD00F0AAF8FFF775FB08B1012CAD
:1078B000F6D9FFF7C7FAFFF7C1FA18B1A4F1090327
:1078C000012BEDD9232C8CBF0020012070BD00BFFF
:1078D000B0E30320B4E30320232838B504460D4663
:1078E0000AD8FF2908D0FFF7C1FF28B12946204652
:1078F000BDE83840FEF774BB38BD38B504460D46C8
:10790000FEF776FBFF2810D0062804D84D2323FA73
:1079100000F0C30709D42046FFF7A8FF28B1294685
:107920002046BDE83840FEF76BBB38BD10B50446B5
:10793000FEF75EFB0438C0B2012808D92046FFF7E5
:1079400095FF20B12046BDE81040FEF761BB002046
:1079500010BD0D2810B504469CBF0E34A4B22046BD
:10796000FFF784FF50B103212046FEF731FB0328C7
:1079700004D12046BDE81040FEF752BB002010BDE8
:107980002DE9F04190461E46072407460D46B8F102
:10799000000F04D1C4F1070146FA01F101E046FAF3
:1079A00004F101F001013846FFF7A7FF0121284645
:1079B000FFF7A3FF00212846FFF79FFF14F1FF34D4
:1079C000E5D2BDE8F081000070B5044614252A46D2
:1079D000094E002100F0DCFE258020253146A560FF
:1079E0002561284600F040F831466060284600F0E6
:1079F0003BF8E060204670BD2CB00D0030B50E4D58
:107A0000296811F0010487B013D12846FCF756FB12
:107A100078B101A8FFF7D8FF01AA21460748FFF770
:107A200063FA2846FCF74FFB054A0649034800F075
:107A30000BF8024807B030BD34E7032038E70320D5
:107A4000B0E10320916E0D000B460146184600F090
:107A500053BE0000024B1868BFF35F8F704700BF32
:107A60004CE70320FCF71BBB00F000B810B5002862
:107A700014BF044601242046FEF716FD20B9FFF787
:107A8000E9FF08B18047F6E710BD0000184B1A68FF
:107A9000D1075CBF01221A60164B1A68D2075CBF7F
:107AA00001221A60144B1A68D0075CBF01221A60C9
:107AB000124B1A68D1075CBF01221A60104B1A687A
:107AC000D2075CBF01221A600E4B1A68D0075CBF58
:107AD00001221A600C4B1A68D1075CBF01221A60A0
:107AE0000A4B1A68D2075CBF01221A60704700BFB8
:107AF0006CE7032068E7032064E7032060E70320C6
:107B00005CE7032058E7032054E7032050E70320F5
:107B1000244B1A68D0075CBF01221A60224B1A68F6
:107B2000D1075CBF01221A60204B1A68D2075CBFE4
:107B300001221A601E4B1A68D0075CBF01221A602E
:107B40001C4B1A68D1075CBF01221A601A4B1A68D5
:107B5000D2075CBF01221A60184B1A68D0075CBFBD
:107B600001221A60164B1A68D1075CBF01221A6005
:107B7000144B1A68D2075CBF01221A60124B1A68B4
:107B8000D0075CBF01221A60104B1A68D1075CBF96
:107B900001221A600E4B1A68D2075CBF01221A60DC
:107BA000704700BF9CE7032098E7032094E7032079
:107BB00090E703208CE7032088E7032084E7032075
:107BC00080E703207CE7032078E7032074E70320A5
:107BD00070E70320244B1A68D0075CBF01221A60AB
:107BE000224B1A68D1075CBF01221A60204B1A6829
:107BF000D2075CBF01221A601E4B1A68D0075CBF17
:107C000001221A601C4B1A68D1075CBF01221A605E
:107C10001A4B1A68D2075CBF01221A60184B1A6807
:107C2000D0075CBF01221A60164B1A68D1075CBFEF
:107C300001221A60144B1A68D2075CBF01221A6035
:107C4000124B1A68D0075CBF01221A60104B1A68E9
:107C5000D1075CBF01221A600E4B1A68D2075CBFC5
:107C600001221A60704700BFCCE70320C8E7032059
:107C7000C4E70320C0E70320BCE70320B8E70320E4
:107C8000B4E70320B0E70320ACE70320A8E7032014
:107C9000A4E70320A0E70320184B1A68D1075CBFB4
:107CA00001221A60164B1A68D2075CBF01221A60C3
:107CB000144B1A68D0075CBF01221A60124B1A6875
:107CC000D1075CBF01221A60104B1A68D2075CBF53
:107CD00001221A600E4B1A68D0075CBF01221A609D
:107CE0000C4B1A68D1075CBF01221A600A4B1A6854
:107CF000D2075CBF01221A60704700BFECE7032087
:107D0000E8E70320E4E70320E0E70320DCE70320C3
:107D1000D8E70320D4E70320D0E7032081F0004117
:107D200002E000BF83F0004330B54FEA41044FEA60
:107D3000430594EA050F08BF90EA020F1FBF54EAFB
:107D4000000C55EA020C7FEA645C7FEA655C00F097
:107D5000E2804FEA5454D4EB5555B8BF6D420CDD68
:107D60002C4480EA020281EA030382EA000083EAEB
:107D7000010180EA020281EA0303362D88BF30BD8B
:107D800011F0004F4FEA01314FF4801C4CEA1131E1
:107D900002D0404261EB410113F0004F4FEA033340
:107DA0004CEA133302D0524263EB430394EA050FCB
:107DB00000F0A780A4F10104D5F1200E0DDB02FA3A
:107DC0000EFC22FA05F2801841F1000103FA0EF2CE
:107DD000801843FA05F359410EE0A5F120050EF194
:107DE000200E012A03FA0EFC28BF4CF0020C43FAC5
:107DF00005F3C01851EBE37101F0004507D54FF0D2
:107E0000000EDCF1000C7EEB00006EEB0101B1F521
:107E1000801F1BD3B1F5001F0CD349085FEA300067
:107E20004FEA3C0C04F101044FEA445212F5800F72
:107E300080F09A80BCF1004F08BF5FEA500C50F10F
:107E4000000041EB045141EA050130BD5FEA4C0CF2
:107E5000404141EB010111F4801FA4F10104E9D17B
:107E600091F0000F04BF01460020B1FA81F308BF72
:107E70002033A3F10B03B3F120020CDA0C3208DD3E
:107E800002F1140CC2F10C0201FA0CF021FA02F119
:107E90000CE002F11402D8BFC2F1200C01FA02F189
:107EA00020FA0CFCDCBF41EA0C019040E41AA2BFAE
:107EB00001EB0451294330BD6FEA04041F3C1CDA76
:107EC0000C340EDC04F11404C4F1200220FA04F096
:107ED00001FA02F340EA030021FA04F345EA030140
:107EE00030BDC4F10C04C4F1200220FA02F001FA02
:107EF00004F340EA0300294630BD21FA04F0294684
:107F000030BD94F0000F83F4801306BF81F480111C
:107F10000134013D4EE77FEA645C18BF7FEA655C8F
:107F200029D094EA050F08BF90EA020F05D054EA61
:107F3000000C04BF1946104630BD91EA030F1EBF66
:107F40000021002030BD5FEA545C05D1400049416A
:107F500028BF41F0004130BD14F580043CBF01F55D
:107F6000801130BD01F0004545F0FE4141F4700143
:107F70004FF0000030BD7FEA645C1ABF194610461E
:107F80007FEA655C1CBF0B46024650EA013406BF1F
:107F900052EA033591EA030F41F4002130BD00BFDE
:107FA00090F0000F04BF0021704730B54FF480649B
:107FB00004F132044FF000054FF0000150E700BF1C
:107FC00090F0000F04BF0021704730B54FF480647B
:107FD00004F1320410F0004548BF40424FF0000168
:107FE0003EE700BF42004FEAE2014FEA31014FEAAB
:107FF00002701FBF12F07F4393F07F4F81F06051FA
:10800000704792F0000F14BF93F07F4F704730B568
:108010004FF4607401F0004521F0004120E700BFFB
:1080200050EA010208BF704730B54FF000050AE082
:1080300050EA010208BF704730B511F0004502D583
:10804000404261EB41014FF4806404F132045FEA85
:10805000915C3FF4DCAE4FF003025FEADC0C18BF2A
:1080600003325FEADC0C18BF033202EBDC02C2F120
:10807000200300FA03FC20FA02F001FA03FE40EAB2
:108080000E0021FA02F11444C1E600BF70B54FF0B2
:10809000FF0C4CF4E06C1CEA11541DBF1CEA135594
:1080A00094EA0C0F95EA0C0F00F0DEF82C4481EAFC
:1080B000030621EA4C5123EA4C5350EA013518BF1C
:1080C00052EA033541F4801143F4801338D0A0FB09
:1080D00002CE4FF00005E1FB02E506F00042E0FBB6
:1080E00003E54FF00006E1FB03569CF0000F18BFBC
:1080F0004EF0010EA4F1FF04B6F5007F64F5407464
:1081000004D25FEA4E0E6D4146EB060642EAC621F6
:1081100041EA55514FEAC52040EA5E504FEACE2E63
:10812000B4F1FD0C88BFBCF5E06F1ED8BEF1004F66
:1081300008BF5FEA500E50F1000041EB045170BDE2
:1081400006F0004646EA010140EA020081EA030126
:10815000B4EB5C04C2BFD4EB0C0541EA045170BD22
:1081600041F480114FF0000E013C00F3AB8014F19C
:10817000360FDEBF002001F0004170BDC4F10004E5
:10818000203C35DA0C341BDC04F11404C4F1200566
:1081900000FA05F320FA04F001FA05F240EA0200C1
:1081A00001F0004221F0004110EBD37021FA04F6F7
:1081B00042EB06015EEA430E08BF20EAD37070BDB1
:1081C000C4F10C04C4F1200500FA04F320FA05F010
:1081D00001FA04F240EA020001F0004110EBD37012
:1081E00041F100015EEA430E08BF20EAD37070BD82
:1081F000C4F1200500FA05F24EEA020E20FA04F35B
:1082000001FA05F243EA020321FA04F001F0004109
:1082100021FA04F220EA020000EBD3705EEA430E7A
:1082200008BF20EAD37070BD94F0000F0FD101F0A9
:108230000046400041EB010111F4801F08BF013CE2
:10824000F7D041EA060195F0000F18BF704703F020
:108250000046520043EB030313F4801F08BF013DA7
:10826000F7D043EA0603704794EA0C0F0CEA135563
:1082700018BF95EA0C0F0CD050EA410618BF52EA1D
:108280004306D1D181EA030101F000414FF0000023
:1082900070BD50EA410606BF1046194652EA430631
:1082A00019D094EA0C0F02D150EA013613D195EAA5
:1082B0000C0F05D152EA03361CBF104619460AD1ED
:1082C00081EA030101F0004141F0FE4141F47001F7
:1082D0004FF0000070BD41F0FE4141F4780170BDE7
:1082E00070B54FF0FF0C4CF4E06C1CEA11541DBF4C
:1082F0001CEA135594EA0C0F95EA0C0F00F0A7F84E
:10830000A4EB050481EA030E52EA03354FEA01317A
:1083100000F088804FEA03334FF0805545EA13138D
:1083200043EA12634FEA022245EA111545EA106555
:108330004FEA00260EF000419D4208BF964244F1EC
:10834000FD0404F5407402D25B084FEA3202B61A0B
:1083500065EB03055B084FEA32024FF480104FF4DF
:10836000002CB6EB020E75EB030E22BFB61A754653
:1083700040EA0C005B084FEA3202B6EB020E75EBE6
:10838000030E22BFB61A754640EA5C005B084FEA4E
:108390003202B6EB020E75EB030E22BFB61A75461B
:1083A00040EA9C005B084FEA3202B6EB020E75EB26
:1083B000030E22BFB61A754640EADC0055EA060EE7
:1083C00018D04FEA051545EA16754FEA06164FEA2A
:1083D000C30343EA52734FEAC2025FEA1C1CC0D1D6
:1083E00011F4801F0BD141EA00014FF000004FF063
:1083F000004CB6E711F4801F04BF01430020B4F124
:10840000FD0C88BFBCF5E06F3FF6AFAEB5EB030CDB
:1084100004BFB6EB020C5FEA500C50F1000041EBD8
:10842000045170BD0EF0004E4EEA113114EB5C04A5
:10843000C2BFD4EB0C0541EA045170BD41F4801178
:108440004FF0000E013C90E645EA060E8DE60CEA80
:10845000135594EA0C0F08BF95EA0C0F3FF43BAF9D
:1084600094EA0C0F0AD150EA01347FF434AF95EA54
:108470000C0F7FF425AF104619462CE795EA0C0F38
:1084800006D152EA03353FF4FDAE1046194622E705
:1084900050EA410618BF52EA43067FF4C5AE50EADF
:1084A00041047FF40DAF52EA43057FF4EBAE12E7CF
:1084B0004FF0FF3C06E000BF4FF0010C02E000BFB0
:1084C0004FF0010C4DF804CD4FEA410C7FEA6C5C93
:1084D0004FEA430C18BF7FEA6C5C1BD001B050EA36
:1084E000410C0CBF52EA430C91EA030F02BF90EA21
:1084F000020F0020704710F1000F91EA030F58BFE0
:10850000994208BF90422CBFD8176FEAE37040F041
:10851000010070474FEA410C7FEA6C5C02D150EADF
:10852000013C07D14FEA430C7FEA6C5CD6D152EA9A
:10853000033CD3D05DF8040B704700BF844610465F
:1085400062468C461946634600E000BF01B5FFF75E
:10855000B7FF002848BF10F1000F01BD4DF808ED2E
:10856000FFF7F4FF0CBF012000205DF808FB00BFFF
:108570004DF808EDFFF7EAFF34BF012000205DF859
:1085800008FB00BF4DF808EDFFF7E0FF94BF0120A6
:1085900000205DF808FB00BF4DF808EDFFF7CEFFA7
:1085A00094BF012000205DF808FB00BF4DF808EDE6
:1085B000FFF7C4FF34BF012000205DF808FB00BFB7
:1085C0004FEA410212F5001215D211D56FF47873FB
:1085D000B3EB625212D94FEAC12343F0004343EA9E
:1085E000505311F0004F23FA02F018BF4042704779
:1085F0004FF00000704750EA013005D111F0004003
:1086000008BF6FF0004070474FF00000704700BF98
:108610004A0011D212F5001211D20DD56FF4787301
:10862000B3EB62520ED44FEAC12343F0004343EA56
:10863000505323FA02F070474FF00000704750EAA1
:10864000013002D14FF0FF3070474FF0000070470B
:108650004FEA4102B2F1E04324BFB3F5001CDCF164
:10866000FE5C0DD901F0004C4FEAC0024CEA50709C
:10867000B2F1004F40EB830008BF20F001007047CB
:1086800011F0804F21D113F13872BCBF01F00040CE
:10869000704741F480114FEA5252C2F11802C2F100
:1086A000200C10FA0CF320FA02F018BF40F0010081
:1086B0004FEAC1234FEAD32303FA0CFC40EA0C0033
:1086C00023FA02F34FEA4303CCE77FEA625307D170
:1086D00050EA01331EBF4FF0FE4040F440007047A7
:1086E00001F0004040F0FE4040F40000704700BF41
:1086F000002100F0F5BE000010B5054C13462CB16A
:108700000A4601460220AFF3008010BD204610BD8E
:1087100000000000002910B591FBF2F402FB1413D5
:1087200004DB002B07DA01349B1A04E0002BC4BFE2
:1087300004F1FF349B180460436010BD004870478B
:1087400078E1032010B5431E0A44914204D011F889
:10875000014B03F8014FF8E710BD884210B501EB5B
:10876000020301D8421E0BE09842FBD28118D21AB4
:10877000D34204D013F8014D01F8014DF8E710BDC4
:10878000994204D011F8014B02F8014FF8E710BDEF
:1087900002440346934202D003F8011BFAE77047F4
:1087A00038B5124B1C68A36B0546D3B91820FDF7EA
:1087B0007BFE43F20E33A06303804AF6CD33438041
:1087C00041F2342383804EF26D63C3804DF6EC6337
:1087D0000381052343810B23838101220023C0E908
:1087E0000423A36B00221D615A6138BD74E103208C
:1087F000034611F8012B03F8012B002AF9D1704729
:10880000034613F8012B002AFBD1181A01387047D0
:10881000104B70B51E680A44914217D010F8013B06
:10882000F418647804F00304012C11F8014B06EBF2
:10883000040508BF20336D7805F00305012D08BF3E
:1088400020341B1B03D1002CE6D100E00023184686
:1088500070BD00BF10E1032030B582B1451E013963
:1088600015F8013F11F8014FA34206D1EC4314441F
:10887000E04201D0002BF3D11C46181B30BD10463E
:1088800030BD10B5034642B111F8014B03F8014B5E
:10889000013A002CF7D11A4400E010BD934202D0F7
:1088A00003F8014BFAE710BD70B504460D4645ECE0
:1088B000104B164601F000FC51EC100B7EB1C5F3D5
:1088C0000A53C3F16B03002B09DD1B0503F17F5530
:1088D000002405F5401522462B46FFF7D7FB70BD57
:1088E0002DE9F04F9DB0002302900C46139218938F
:1088F0004FF0000A4FF0000B1791179B1A780D2AC2
:1089000005D8092A13D2002A00F0AC8112E02B2AE4
:1089100004D02D2A04D0202A0CD108E0002200E047
:1089200001220C925A1C17925B782BB99AE1013301
:108930001793E2E700230C93179D2B78302B5CD123
:108940006B78582B01D0782B4CD10C9B019318AB32
:108950000093A94A029819AB17A900F014FE10F071
:108960000706044600F08785062E05D10135002351
:1089700017950C9300F07FBD189A3AB135211AA8CB
:1089800001F087FC1899029801F004F9062E22D80C
:10899000DFE806F0040D08181D0D04004FF0000B71
:1089A000DA4618E0DDF868A0DDF86CB013E01B9B38
:1089B000199ADDF868A023F4801302F2334243EAE7
:1089C000025B08E0DFF834B24FF0000A03E06FF01A
:1089D000004B4FF0FF3A210740F14D854BF0004B23
:1089E00000F049BD179B5A1C17925B78302BF9D0C9
:1089F000002B00F04085012300E000234FF0000829
:108A00000693179B0793CDF81480CDF810800A22A7
:108A1000179D2E78A6F13003D9B209290ED80499F2
:108A20000829DDBF059902FB0133059302FB0838D5
:108A3000049B0135013304931795E9E70298FFF78A
:108A40007DFE07680298FFF779FE0068FFF7D8FE01
:108A5000394602462846FFF7FFFE074628B10020A8
:108A60003346049D0246014657E00298FFF766FE32
:108A70000068FFF7C5FE179B1A181792049A1B5C33
:108A8000002A42D11046302B05D1179B5A1C179251
:108A900001305B78F7E7A3F13102082A43D8179A2F
:108AA0000792024600200546303B00F1010126D026
:108AB0000A4405EB000C29460A2661450ED0013117
:108AC00001F1FF3EBEF1080F03DC059F77430597D8
:108AD000F3E71029D8BF06FB08F8EEE7284408287A
:108AE00000F1010505DC05980A2101FB003305931F
:108AF00004E0102DDCBF0A2101FB08380021179B80
:108B0000581C17905B78084602E0049D38463A46A8
:108B1000A3F130010929C7D90121652B01D0452BCB
:108B200051D16DB904E0652B40F0B38400220121DE
:108B300028B9069B002B00F09580054600E0002533
:108B4000179C631C179363782B2B06D02D2B02D018
:108B50000026039606E0012300E000230393A31CF4
:108B60001793A378A3F13006092E2BD8302B04D10C
:108B7000179B5E1C17965B78F8E7A3F13106082E69
:108B800021D8A3F1300E179B4FF00A0C1F46179BFC
:108B90005E1C17965B78A3F13009B9F1090F04D870
:108BA0000CFB0E3EAEF1300EF1E7F61B082E44F63C
:108BB0001F6902DCF145A8BFF146039E2EB1C9F141
:108BC000000902E017944FF00009002D53D100284E
:108BD00040F05184069A002A40F04D84002941D18A
:108BE0004E2B20D002DC492B0AD03BE0692B07D06A
:108BF0006E2B18D036E000BF98B10D000000F07F5A
:108C0000A84917A800F0F0FE60B3179BA649013BE6
:108C100017A8179300F0E8FE10B9179B01331793BC
:108C2000DFF8A0B21AE0A14917A800F0DDFEC8B134
:108C3000179B1B78282B0FD11AAA9D4917A800F063
:108C4000E6FE052808D11B9BDDF868A043F0FF4B2A
:108C50004BF4E00B00F00FBCDFF86CB24FF0000AF1
:108C600000F009BC139B1794002B00F00F84002325
:108C70000C9300F002BC049B0598002B08BF2B4608
:108C8000102D2C46C2EB0909A8BF10240493FFF74E
:108C900087F9092C82468B4613DD864B03EBC40310
:108CA00053E91223FFF7F2F9064640460F46FFF755
:108CB00077F902460B4630463946FFF735F88246CB
:108CC0008B460F2D36DCB9F1000F00F0D48324DD84
:108CD000B9F1160F07DC774D05EBC90952465B4623
:108CE000D9E9000114E0C5F12503994522DC714C56
:108CF000C5F10F0504EBC501C5EB090552465B46FE
:108D0000D1E9000104EBC504FFF7C0F9D4E9002361
:108D1000FFF7BCF982468B46ADE319F1160F09DB6C
:108D2000644DA5EBC909D9E9002350465946FFF720
:108D3000D7FAEFE72C1B4C44002C57DD14F00F0141
:108D40000AD05C4B03EBC10152465B46D1E90001FE
:108D5000FFF79CF982468B4634F00F0400F0B88090
:108D6000B4F59A7F0BDD0024254605940494029AFD
:108D7000DFF850B1222313604FF0000A87E14E4E16
:108D8000002324115046594698463746012C0BDDE6
:108D9000E20704D5D6E90023FFF778F9012308F1AB
:108DA000010864100836F1E70BB182468B46ABF13F
:108DB000547B07EBC80752465B46D7E90001FFF733
:108DC00065F921F000438B460A461B0D3B491B0504
:108DD0008B428246C7D8A1F580118B4286BFDFF84F
:108DE000ECB04FF0FF3A02F1547B71E070D0644276
:108DF00014F00F020AD02F4B03EBC2035046594622
:108E0000D3E90023FFF76CFA82468B4624115FD02A
:108E10001F2C04DD002425460594049430E114F051
:108E2000100F0CBF00236A23254E0393504659466A
:108E30000023002C09DDE20704D5D6E90023FFF763
:108E400025F9012364100836F3E70BB182468B46FF
:108E5000039BEBB1CBF30A53C3F16B03002B5946D1
:108E600016DD1F2B0EDD342BDEBF203B4FF0FF3213
:108E700002FA03F34FF0000ACCBF4FF05C7B03EA29
:108E8000010B05E04FF0FF3202FA03F303EA0A0A8E
:108E90000022002350465946FFF760FB0028B9D155
:108EA00018E000BFC0B10D00C3B10D00C9B10D0085
:108EB000ACB10D00F8B10D00C0B20D000000A07CF7
:108EC000D0B10D000000F07F0000F8FFFFFFEF7F42
:108ED00000230393059B0093049A079902982B465D
:108EE00000F0AAFE059000283FF43DAFB9F1000F55
:108EF000C9F10003A8BF00230D93002429EAE973F8
:108F000012932546059B0298596800F00EFE0490C6
:108F100000283FF42CAF059B1A69023203F10C01C3
:108F200092000C30FFF70EFC1AAA19A94BEC10ABFB
:108F30000298CDE908AB01F034F9189000283FF40D
:108F400016AF0121029800F002FF054600283FF409
:108F50000EAF199B03991A9E002BADBF0D9A129A62
:108F6000DDF8348002EB0308B8BFD21AA3EB01038B
:108F70003344B549A8BF129A013B8B42C6F136066D
:108F800080F28A80C91A1F29C8BFB04F4FF001096B
:108F9000D4BF09FA01F3FF1AA6EB0106D9BF069365
:108FA000002709FA07F7CDF8189008EB0609039B8C
:108FB000C84516441E444346A8BF4B46B342A8BF0B
:108FC0003346002BC2BFC3EB0909F61AC3EB0808EE
:108FD0000D9B002B64D1B9F1000F7ADC129B002BA2
:108FE00040F08180002E00F38880B8F1000F00F37C
:108FF0008E80049A1899029800F0FFFF044600281A
:109000003FF4B5AEC36807930023C360294600F060
:10901000D8FF002880F28980079B002B40F0048253
:10902000BAF1000F40F00082CBF31303002B40F0A5
:10903000FB812BF000431B0D1B05B3F1D66F40F2F3
:10904000F3816369002B6CD021460122029800F065
:1090500067FF2946044600F0B4FF002840F3E4818E
:109060002BF00043039A1B0D1B05002A00F08C8097
:10907000B3F1D66F00F38880B3F15C7F00F3D68143
:10908000029A22234FF0000A4FF0000B1360059B59
:10909000002B40F0DC81EEE101230027069384E7FA
:1090A00029461A46029800F0EDFE054600283FF4D6
:1090B0005EAE0146189A029800F052FE0790002812
:1090C0003FF455AE1899029800F064FD079B189381
:1090D00081E74A461899029800F022FF189000286C
:1090E0007FF47CAF43E6129A0499029800F0CAFE1E
:1090F000049000287FF476AF39E63246049902984E
:1091000000F00EFF049000287FF46FAF2FE6294691
:109110004246029800F004FF054600287FF469AF3C
:1091200025E62369012B8FDC7EE161D1079ACBF321
:10913000130322B346498B425A462ED1039B514614
:1091400063B1444B1340B3F1D46F07D81B0DC3F187
:109150006B034FF0FF3000FA03F301E04FF0FF33F1
:109160008B421AD13C498A4202D101333FF4FFAD10
:10917000384B134003F5801B4FF0000A54E163B9EC
:10918000BAF1000F09D16BE7A3F580136FEA135B07
:109190006FEA0B5B4FF0FF3A46E117B117EA0B0F8E
:1091A00002E0069B13EA0A0F00F03E81079B039A38
:1091B0005046594653B1FFF777FB02460B46DDE9AF
:1091C0000801FEF7B1FD82468B462DE1FFF76CFBEF
:1091D00002460B46DDE90801FEF7A4FD002200234C
:1091E00082468B46FFF7BAF900287FF449AF1BE1AE
:1091F0002946204601F023F857EC106B00224FF06F
:10920000804310EE100A3946FFF7BCF9002842D01F
:10921000079B23B14FF00008DFF8409011E0BAF14E
:10922000000F03D1CBF313033BB91BE0BAF1010FDD
:1092300003D1BBF1000F3FF423AFDFF824904FF0D0
:1092400000080026054F39E002FCFFFFE2FBFFFFAC
:10925000FFFF0F000000F07FFFFFEF7F0000F03FF7
:109260000000F0BF0022984B30463946FFF780F9E6
:1092700040B9304639460022944BFEF707FF0646B8
:109280000F4601E0914F002607F100431496159315
:10929000DDE9148912E08D4B304639460022FEF795
:1092A000F5FE079B06460F4623B901F100430E90D9
:1092B0000F9301E0CDE90E67DDE90E892BF0004345
:1092C0001B0D1B050693069A814B9A422BD1DDE9B3
:1092D0000823ABF1547B4BEC10ABCDE90A2300F033
:1092E000EBFE404653EC102B4946FEF7CFFE5246AC
:1092F0005B46FEF719FD21F000431B0D754A1B0567
:10930000934282460CD9744B0B9A9A4203D10A9B22
:1093100001333FF42CADDFF8C0B14FF0FF3A72E0FB
:1093200001F1547B38E0039B33B3069BB3F1D46F58
:1093300022D85DA3D3E9002330463946FFF722F94E
:10934000A8B139463046FFF763F9002808BF01206D
:10935000FEF726FE079B06460F4623B901F10043A0
:109360001090119301E0CDE91067DDE91089069AAC
:1093700009F1D663C2EB03099DED080B00F09CFEDA
:10938000404653EC102B4946FEF780FEDDE90823EA
:10939000FEF7CAFC82468B46039BA3BB2BF000431F
:1093A0001B0D069A1B059A42D8462CD139463046E9
:1093B000FFF706F9FEF704FE0B4602463946304633
:1093C000FEF7B0FC079B06460F462BB9BAF1000F1B
:1093D00002D1CBF3130383B135A3D3E90023304685
:1093E0003946FFF7C5F8002831D133A3D3E900236C
:1093F00030463946FFF7DAF804E031A3D3E9002319
:10940000FFF7B6F818BB1899029800F0C3FB04994F
:10941000029800F0BFFB2946029800F0BBFB2146F2
:10942000029800F0B7FB6DE5039B83B12B4B0B93C8
:1094300000230A9350465946DDE90A23FEF726FE2B
:1094400082468B4619B910B9029A222313601899E3
:10945000029800F09FFB0499029800F09BFB2946BC
:10946000029800F097FB0599029800F093FB2146C3
:10947000029800F08FFB139B13B1139A179B136094
:109480000C9B1BB152460BF1004307E052465B4672
:1094900004E000252A460121FFF741BB43EC102BD5
:1094A0001DB0BDE8F08F00BF0000C0FFFFFFDF412F
:1094B0009535A094FFFFDF3F35E5AF350000E03F75
:1094C0009535A094FFFFCF3F0000F03F0000E03F44
:1094D0000000E07FFFFF9F7CFFFFEF7F000050391F
:1094E000024B0A4601461868FFF7FAB974E10320F7
:1094F000F0B506694B11B34200F1140527DA11F0FB
:109500001F0105EB860605EB830201D1294616E013
:10951000141D55F82320C1F1200ECA402B46B44239
:1095200009D2276807FA0EF73A4343F8042B54F898
:10953000042BCA40F3E71A6052B1043308E0B24288
:109540000B4605D252F8043B41F8043BF7E72B46A3
:109550005B1B9B10036103B94361F0BDA0F13003B5
:10956000092B01D820380AE0A0F16103052B01D8AE
:10957000473804E0A0F14103052B02D82738C0B2D8
:109580007047002070472DE9F04F8BB08A46904617
:1095900006930290FFF7D2F8036803931846FFF78B
:1095A0002FF9039B019003444FF0000B13F8013C8B
:1095B0000793DAF8003002331F4613F8010B302806
:1095C00002D10BF1010BF7E7FFF7C8FF0446E0B942
:1095D000019A03993846FFF73FF9002834D1019BDF
:1095E000F85CFE18FFF7BAFF80B3334618783028CE
:1095F0001F4603F10103F9D0FFF7B0FFB0FA80F581
:109600006D0934464FF0010B01E000252C463A4627
:10961000164601323078FFF7A1FF0028F8D1019AF1
:1096200003993046FFF718F950B954B9019BF41863
:109630002246164601323078FFF790FF0028F8D115
:1096400034B1A41BA40003E03E4600E0044601251B
:109650003378502B01D0702B2AD173782B2B08D064
:109660002D2B03D0711C4FF0000905E04FF00109CC
:1096700001E04FF00009B11C0878FFF76FFF431EAF
:10968000DBB2182B14D8A0F1100211F8010FFFF76C
:1096900065FF431EDBB2182B04D80A2303FB02022A
:1096A000103AF2E7B9F1000F00D05242144400E042
:1096B0003146CAF800102DB1BBF1000F14BF0020D5
:1096C00006207CE1F31B013B2946072B02DD01311B
:1096D0005B10FAE7029800F028FA019B00F1140AE7
:1096E0004FF00009C3F101030546CDF810A0CB46A9
:1096F0000893B7422FD2731E0593079A16F8013CC0
:1097000093420BD0BBF1200F16D1049BC3F80090FD
:1097100004334FF000090493CB460DE0059B089AF3
:1097200013449F42EED81846019A03990993FFF714
:1097300093F8099B68B1E5E716F8010CFFF70EFFF7
:1097400000F00F0000FA0BF0059B49EA00090BF14D
:10975000040B1E46CDE7049840F8049BCAEB0000BA
:10976000801028614701484600F0A4FAD8F800604C
:10977000381AB04226DD871B3946284600F0A3FD83
:10978000C8B17B1E591103F01F024FF001095AF8AE
:10979000211009FA02F20A420ED04B4502DC4FF0CA
:1097A000020909E0B91E284600F08DFD0028F6D018
:1097B0004FF0030900E0814639462846FFF798FE3E
:1097C0003C440CE009DA371A29463A46029800F080
:1097D000A7FBE41B054600F1140A4FF00009D8F876
:1097E00008309C4208DD0298294600F0D3F9149A0B
:1097F00000231360A320E2E0D8F80400844253DA87
:10980000041BA6422EDCD8F80C30022B1AD0032BF6
:109810001CD0012B1DD1A6421BD1012E0BDC069AB8
:10982000D8F80430136001232B61CAF80030149B70
:1098300062201D60C3E0711E284600F044FD002830
:10984000EDD106E0159B002BE9D002E0159B002B23
:10985000E5D10298294600F09DF9149A002313607F
:109860005020ACE0671EB9F1000F06D13FB1394678
:10987000284600F028FD814601E04FF001097A11E9
:10988000012307F01F0703FA07F75AF82230214691
:109890001F42284618BF49F00209361BFFF728FE71
:1098A0000227D8F8044000E00127B9F1000F00F0CA
:1098B0008180D8F80C30022B0ED0032B10D0012B56
:1098C00076D119F0020F73D0DAF8000049EA0009E6
:1098D00019F0010F07D16BE0159BC3F1010315933C
:1098E000159B002B64D0D5F810A005F114034FEAA6
:1098F0008A0903EB090100201A68B2F1FF3F02D088
:1099000001321A6020E043F8040B9942F4D8AB68A6
:109910009A4512DB69680298013100F006F92A695C
:10992000023205F10C01834692000C30FEF70AFF6B
:109930002946029800F02EF95D462B695A1C05EB6A
:1099400083032A6101225A61022F05F1140211D109
:10995000D8F80030013B9E4227D17111012306F057
:109960001F0603FA06F652F821301E420CBF0227EA
:1099700001271AE02B699A450ADA01212846FFF7E8
:10998000B7FDD8F8083001349C423FF72CAF0BE00C
:1099900016F01F0608D09144C6F1200659F8040CB1
:1099A00000F088F9B042E8DB012747F0200701E02A
:1099B00047F01007149B1D60069B38461C600BB0D7
:1099C000BDE8F08FC2F10802920070B5C2F1200626
:1099D0004368056803FA06F42C43D340046040F85A
:1099E000043F8842F4D370BD30B5036811F8014BD1
:1099F00001334CB11A78A2F14105192D98BF2032DC
:109A0000A242F3D0002030BD0360012030BD2DE91B
:109A1000F04F0B68D0F800B05E1102EB860613F031
:109A20001F0385B018BF0436351F17460022824633
:109A3000019346F8042CA8462C46009291461BF848
:109A4000011F00293CD0084603920291FFF786FDD2
:109A5000039A00BB0299202916D8009B9945EEDD98
:109A6000444505D2072A03DC41462046FFF7AAFFFA
:109A7000BC4223D90023A4F1040844F8043CCDF8E7
:109A8000009044461A46DAE7292948D10BF1010330
:109A9000CAF8003014E00132082A09F1010906DD94
:109AA000BC42CCD9002344F8043C0122043C216888
:109AB00000F00F0040EA01102060C0E70822BEE776
:109AC000B9F1000F2BD0444505D2072A03DC4146EB
:109AD0002046FFF777FFBC420CD93B4654F8042BD5
