:02000002D0002C
:1040000000400D0084820D00000006000C00050138
:084010000401E80500000000B6
:0440180014710D0012
:1040200009480A49884208B505D0094A824202D0A7
:10403000121A03F00FF80748074A0021121A03F07A
:1040400014F8014808BD00BFD8DD0320E47D0D0051
:1040500050E2032050E20320F0E7032070B501F0A6
:104060007BFB074C074BE41AA40800251E46A5421B
:1040700004D056F8253098470135F8E770BD00BFE9
:10408000DC7D0D008C7D0D0000F07EB808B500F0E1
:10409000BDF8BDE8084001F021BB01F089B901F08D
:1040A0008FB901F08DB9000008B5034A00210C203A
:1040B00001F0F2F8FEE700BF49500D000078B0FAB9
:1040C00080F04009704701230370704770477047C4
:1040D00038B584690A4B036005467CB16368013BCF
:1040E00063605BB9236820469B689847A368013BDF
:1040F000A3601BB923682046DB689847284638BD73
:10410000607C0D0010B50446FFF7E2FF20461C213D
:1041100002F01CFA204610BD38B5174800F01BFD10
:1041200040BB01F02BFC154901F018FA124800F0D1
:10413000EFFE0446B8B101F021FC214605460E48C9
:1041400000F022FE0146284601F01BFA01F016FCA1
:104150000B4901F016FA084800F024FE41F28830BD
:1041600001F086FAE2E701F009FC0649BDE83840B3
:1041700001F007BA38BD00BF74E2032028710D00BA
:104180003F710D0068710D0008B50021132002F089
:104190007DF90121052002F079F90121062002F0C4
:1041A00075F90121072002F071F9BDE80840FFF719
:1041B000B3BF000038B500F04FFF104B1A68801AEB
:1041C00047F2305290421C4617D901F0D7FB0C4AF7
:1041D000002101F000FA01210A4800F0F7FD054630
:1041E00040B901F0CBFB084A294601F0F4F9054833
:1041F00000F0D8FD00F030FF206038BD70E20320F1
:1042000078710D0074E2032087710D00FFF7D2BFB3
:1042100010B52421044602F099F9204610BD10B5CE
:10422000D421044602F092F9204610BD73B5174C14
:10423000174D184E00F0D8FE0421204600F0B4FAC5
:104240002A461549204602F073F91448144C00F030
:1042500035F8304601F0E4FF2A461249304602F0B4
:1042600067F9114B009340F25B72104B10492046E6
:1042700000F004FD0F4B104923602A462046C4F885
:10428000D06002B0BDE8704002F052B98CE3032068
:1042900050E2032054E20320CD400D0048E3032008
:1042A00074E20320D1400D00B3710D0097710D0031
:1042B000A3710D00E0770D00CF400D00FF220274C6
:1042C00042748274C274704700F08EBE91F90E3051
:1042D00000EE103AB8EEC00A704791F90C3000EECB
:1042E000103AB8EEC00A704708B58A7BCB89100631
:1042F0005BBA9BB241BFCB7B02F07F0243EA022351
:1043000007EE903A55BF07EE903AF8EEE77AF8EEEE
:10431000E77AF1EE677A17EE900A02F0D7FB06A370
:10432000D3E9002302F026FC02F036FE00EE100A6C
:1043300008BD00BFAFF300809A9999999999B93F48
:1043400008B5888940BA80B207EE900AF8EEE77A9D
:1043500017EE900A02F0BAFB05A3D3E9002302F09E
:1043600009FC02F019FE00EE100A08BDAFF3008050
:104370009A9999999999B93F7047704710B510214A
:10438000044602F0E3F8204610BD10B510210446A3
:1043900002F0DCF8204610BD10B58368044613B166
:1043A000032201469847204610BD0000044A42609F
:1043B0004FF47A7282601922C260024A026070472A
:1043C000EC710D005C720D00044A42604FF4FA6219
:1043D00082601922C260024A02607047F2710D00C9
:1043E000DC710D0010B500F0FFFD0A4B0A4C1846B9
:1043F000FFF7DCFF22460949184602F099F8084BFE
:104400001846FFF7E1FF224606491846BDE810406E
:1044100002F08EB8CCE3032050E203207B430D0072
:10442000BCE3032079430D00F0B5447EBDF8145081
:10443000022C08D0032C0FD0012C70D10489013C30
:10444000A21A12B20CE04489013CA21A0489E41AAF
:10445000611A12B209B262E04489E41A611A09B21F
:10446000002A5BDBB0F90840944240F390800029B9
:10447000BEBF5B181BB20021B0F90A00CC18844201
:10448000C4BF431A1BB2002B40F38180C9B2C808D5
:104490003F4F02EBC01211F00701DBB207EB020441
:1044A00017D0C1F10801C8B23A4983420E5C3FBF40
:1044B000C3EB000EFF2141FA0EF10E40B95C012D55
:1044C0000CBF3143B1438342B95460D3181AC3B20D
:1044D0008034072B17D9012D0CBFFF20002004F1D9
:1044E00080011A46083AD2B2072A01F8800C01F17D
:1044F0008001F7D8A3F10802C2F3C402013204EB31
:10450000C21403F00703002B41D0234AD25C237866
:10451000012D0CBF134393432370F0BDF0BD002A5F
:1045200035DBB0F90A40944231DD0029BCBFC9181F
:104530000BB2B0F90870B8BF0021CE18BE42C4BF9C
:10454000631A1BB2002B22DDD01001EBC011104802
:1045500002F007020144012000FA02F28542D2B2C1
:1045600009D1013B1BB25C1C11D011F8010B1043A7
:1045700001F8010CF5E7D243D2B2013B1BB2581C43
:1045800005D011F8010B104001F8010CF5E7F0BD62
:10459000E8DD0320E0DD0320D8DD0320F0B5447E14
:1045A000BDF81450022C08D0032C0FD0012C12D1CE
:1045B0000489E41AA21A12B26DE00489013C611A5E
:1045C0004489E41AA21A09B212B204E04489013CF7
:1045D000611A09B25FE000295CDBB0F908408C4247
:1045E00040F39180002ABCBFD21813B2B0F90A0080
:1045F000B8BF0022D4188442C4BF831A1BB2002B58
:1046000040F38180D4B2404EDAB2E30801EBC3112B
:1046100014F0070406EB010317D0C4F10804E0B25C
:104620003A4C8242275C3FBFC2EB000EFF2444FAA3
:104630000EF42740745C012D0CBF3C43BC43824206
:10464000745460D3101AC2B28033072A17D9012DCF
:104650000CBFFF24002403F1800011460839C9B2C1
:10466000072900F8804C00F18000F7D8A2F108017A
:10467000C1F3C401013103EBC11302F00702002AA8
:1046800041D02349895C1A78012D0CBF0A438A4323
:104690001A70F0BDF0BD002935DBB0F90A408C423C
:1046A00031DD002ABCBFD21813B2B0F90870B8BF10
:1046B0000022D618BE42C4BFA31A1BB2002B22DDB3
:1046C000C81002EBC012104801F00701104401228B
:1046D00002FA01F19542C9B209D15A1E13B25C1C0B
:1046E00011D010F8012B0A4300F8012CF5E7C9435B
:1046F000C9B25A1E13B25A1C05D010F8012B0A4039
:1047000000F8012CF5E7F0BDE8DD0320E0DD032033
:10471000D8DD0320F8B50D1E064614461F463FDBC4
:1047200000F011FA85423BDA002C39DB304600F00C
:104730000DFA844234DA304600F003FA022827D119
:104740003189708901390138491B001B0DB204B24F
:1047500006E0012804D13389013B1B1B2C461DB206
:104760000820012F94FBF0F000B20E4B04F007027A
:1047700005EBC01104D197405A5C17435F54F8BD54
:10478000585C012707FA02F220EA02025A54F8BDE7
:104790000328DED17389013B5B1B25461CB2DFE792
:1047A000F8BD00BFE8DD032038B5402204460D46C1
:1047B000802100F0E7F8064B2360FF23637784F83D
:1047C0002130E377A37784F82050204638BD00BF1E
:1047D00074720D0000F008BC2DE9F04F85B01E4644
:1047E000BDF93830BDF83CA015469A1A002AB8BF6A
:1047F00052420092721A002AB8BF524201920C46ED
:10480000009A01998A42814605DD32461E461346CA
:1048100022462C461546B44205DD2A461D4613465F
:104820002246344616465A1B002AB8BF5242C4EBF1
:1048300006089D42B4BF01234FF0FF331FFA88F8EA
:10484000029303920FFA88F7022297FBF2F7B44221
:104850001FDC019A009B9342D9F80030C8BF224662
:10486000D3F810B0C8BF29465346DCBF2A462146BC
:104870004846D847039BFF1ABBB21FB2002F05DA88
:10488000029A08EB030715442DB23FB2013424B25B
:10489000DDE705B0BDE8F08F2DE9F347BDF82C60EA
:1048A0000768BDF928A000960446FF6991460D46A9
:1048B0009846B847236800960AF1FF324A44DF69F8
:1048C00029464346204612B2B847236800969F699E
:1048D0004A46534629462046B84723680A9608F1B7
:1048E000FF3129449D694A46534609B22046AC46E9
:1048F00002B0BDE8F047604737B5013B1344046898
:10490000BDF8185001951BB2009364690B46A0478F
:1049100003B030BD37B5BDF8185004688DE82400E9
:10492000013B0B4464691BB2A04703B030BD2DE9C5
:10493000F347BDF92880BDF82C90054617460C4674
:1049400001EB030A54450BDA2B68CDF800909E6901
:10495000214643463A4628460134B04724B2F1E79F
:1049600002B0BDE8F08713B5B0F90E2004680191DC
:1049700000920022B0F90C30646A1146A04702B0E0
:1049800010BD704730B501810024084D42818181FE
:10499000C2814FF6FF7101224460056044760482B3
:1049A00044820276C1828182827630BDAC720D0073
:1049B0002DE9F04F8FB005460691BDF860100791C4
:1049C000BDF864100891B0F90C1006989DF8688045
:1049D00081427CDDB5F90E10914278DD062111FB94
:1049E0000800002873DD02EBC80000286FDD03EB30
:1049F000830396B20C9306F108039BB2099100243D
:104A00000D93052C1CBF334B0C9A059616BF1B1932
:104A10004FF0000913F8029004961FFA88F30393ED
:104A2000039ABDF8183004FB023213FA84F312B271
:104A30001BB20A9237460FFA88FA0B9319F0010F4E
:104A400011D0B8F1010F2B6803D1D3F810B0079B38
:104A500014E0079A0192CDF800A0D3F824B0BDF974
:104A60001020534618E0079B089A934217D0B8F1DC
:104A7000010F2B6807D1D3F810B013463AB20B9947
:104A80002846D8470BE0089A0192CDF800A0BDF95E
:104A90001420D3F824B053460A992846D847049BDB
:104AA000039A13449BB20493059B13449BB20137B2
:104AB00005930D9BBFB29F424FEA5909BED1099B96
:104AC000013B013413F0FF0364B2099399D10FB095
:104AD000BDE8F08FDC720D0030B50A2985B00446C0
:104AE0000B4604D1027E438A03EBC20323E00D2967
:104AF00024D0057EB0F91220B0F910100295C58AB5
:104B00000195858A0095FFF753FF227E238A91B293
:104B100001EB410003EB4003A07E1BB2238268B18E
:104B2000B4F90C006FF0050505FB0202934205DDA8
:104B3000638A03EBC103638200232382012005B053
:104B400030BD407E7047B0F90C007047B0F90E00E0
:104B5000704700F049BA08B5D0F8D00003681B6B65
:104B60009847003018BF012008BDF8B506460F462B
:104B70001446C4B1D6F8D00003681B6B984708B937
:104B80000020F8BDD6F8D000FA2C03682546A8BF4F
:104B9000FA25DB682A463946984780B2241A8542AE
:104BA000A4B2E6D0ECE70120F8BD2DE9F8430646B3
:104BB000884691461F461D460024D6F8D00003685B
:104BC0001B6B9847D0B1002D18DBD6F8D0000368D6
:104BD0001B69984760B1D6F8D00003685B699847B5
:104BE00008F804000134A4B24C4507D03D46ECE778
:104BF0000A3D0A202DB200F03BFDDEE72046BDE86D
:104C0000F88370B5044600F122059622002128465B
:104C100002F02BFA6168284602F058FAD4F8D00066
:104C20002289036829465E6A0023B047003018BF16
:104C3000012070BD10B50446D0F8D00003681B6B8E
:104C4000984720B1D4F8D0000368DB6A9847012068
:104C500010BD00F0C9B970B5044608460E4602F012
:104C60003DFA03122370607085B202342A46314641
:104C7000204602F03BFA601970BD000030B50361B8
:104C8000039B0D4D028143610C4A05600023416086
:104C9000C260C0F8BC30C0F8C030C0F8C430C0F842
:104CA000C830C0F8CC308361C36180F8203080F810
:104CB0002130A0F8B83030BD04780D0053780D00D5
:104CC0002DE9F74F0FFA83FA036801929D690122DB
:104CD000534606460C46A847C0B2012801D0002022
:104CE00034E0651C04F1050B80464FF00009336881
:104CF0009B6901221F46294653463046B847C0B239
:104D00000128ECD115F8013B03F07F025D4502FB61
:104D100008994FEAC818E2D01B06E8D4019B2C1B67
:104D20001B1B013B9945336806D9019A9F69013ADB
:104D3000121B534692B203E09F691FFA89F2534651
:104D400029463046B847C0B2204480B203B0BDE81F
:104D5000F08F0000F8B505460C4616461F463B4648
:104D6000962221462846FFF7ABFF48B12378B6EBE1
:104D7000131F05D000F002FE024900F002FCEEE72E
:104D8000F8BD00BF54780D000231C9B209299ABF9D
:104D9000024B53F821000248704700BF20780D00F5
:104DA00065780D0010B5E02380F82230002380F8EC
:104DB0002330036804465B69022200F12201984710
:104DC000236820461B69BDE8104018472DE9F843C9
:104DD00004460D464FF000084FF0C00900F12207CD
:104DE000D5B1236884F8229084F823805B6902227D
:104DF000394620469847064610B9013DEDB2EFE727
:104E00004FF4FA730D2239462046FFF7A3FF94F8BA
:104E10002230D02BF1D100E02E463046BDE8F88399
:104E200038B504460846102300F8023B0D462949D0
:104E3000FFF711FF0423037002234370A369ABB192
:104E40001B789BB10623437094F82030012B01D1CD
:104E50000E2302E0022B01D11E23437094F821306F
:104E6000012B02BF437843F02003437023691B7872
:104E70001BB1437863F07F03437063691B781BB1F8
:104E8000437843F040034370012383702C23C370A5
:104E9000E1680B781BB10430FFF7DDFE02E003711F
:104EA00043710630A16931B10B7823B1FFF7D3FE0E
:104EB000E169FFF7D0FE21690B780BB1FFF7CBFE5C
:104EC00061690B780BB1FFF7C6FE401BC0B2831EB1
:104ED0006B7038BD73780D0038B51D4682230B709A
:104EE0000C46B0F8B810090AA170B0F8B830E370F9
:104EF000B0F8B8100131A0F8B8101146201DFFF726
:104F0000AAFE00F8015B001BC0B2831E637038BDAF
:104F10002DE9F0410368DB680446984718B94FF063
:104F2000FF30BDE8F08104F1220529462046FFF755
:104F300077FF236882B25B6929462046984700289C
:104F4000EDD041F27073962229462046FFF7B8FE55
:104F5000C0B20428E3D1638CB3F5087FDFD194F8A5
:104F6000250010B140B2BDE8F08104F1B80704F1AA
:104F7000CC0857F8043FFBB103263A682946137959
:104F800012682046FFF7A8FF236882B25B692946B2
:104F9000204698470028C2D04FF4FA7309222946C8
:104FA0002046FFF7D7FE38B9013E16F0FF06E4D1E0
:104FB0006FF00100BDE8F0814745DAD10020BDE87F
:104FC000F08100F011B8000008B5024B1B689B6827
:104FD000019308BD6802030008B5024B1B68DB683B
:104FE000019308BD6802030008B5024B1B681B68EB
:104FF000019308BD2C02030008B5024B1B689B6897
:10500000019308BD2C02030008B5024B1B68DB6945
:10501000019308BD3002030008B5024B1B681B6AF0
:10502000019308BD3002030008B5024B1B685B69A1
:10503000019308BD6C02030008B5024B1B685B6856
:10504000019308BD1802030008B5024B1B68DB681A
:10505000019308BD1802030008B5024B1B685B6989
:10506000019308BD1802030008B5024B1B689B683A
:10507000019308BD4802030008B5024B1B681B6979
:10508000019308BD4802030008B5024B1B685B6929
:10509000019308BD4802030008B5024B1B685B6C16
:1050A000019308BD4802030008B5024B1B689B6CC6
:1050B000019308BD4802030008B5024B1B685B69F9
:1050C000019308BD6402030008B5024B1B681B6A0C
:1050D000019308BD6402030008B5024B1B689B6A7C
:1050E000019308BD6402030008B5024B1B681B68EE
:1050F000019308BD3C02030008B5024B1B68DB6846
:10510000019308BD3C02030008B5024B1B681B69F4
:10511000019308BD3C02030008B5024B1B685B69A4
:10512000019308BD3C02030008B5024B1B689B6954
:10513000019308BD3C02030008B5024B1B68DB6904
:10514000019308BD3C02030008B5024B1B681B6AB3
:10515000019308BD3C02030008B5024B1B689B6A23
:10516000019308BD3C02030008B5024B1B681B6A93
:10517000019308BD2802030008B5024B1B685B6A57
:10518000019308BD2802030008B5024B1B689B6A07
:10519000019308BD2802030008B5024B1B68DB6AB7
:1051A000019308BD2802030008B5024B1B681B6B66
:1051B000019308BD2802030008B5024B1B685B6B16
:1051C000019308BD2802030008B5024B1B681B6C45
:1051D000019308BD2802030008B5024B1B689B69B8
:1051E000019308BD3802030008B5024B1B68DB6958
:1051F000019308BD3802030008B5024B1B681B6A07
:10520000019308BD3802030008B5024B1B689B6A76
:10521000019308BD3802030008B5024B1B681B6BE5
:10522000019308BD3802030008B5024B1B689B6B55
:10523000019308BD3802030008B5024B1B681B68C8
:10524000019308BD4C02030008B5024B1B681B69A3
:10525000019308BD4C02030008B5024B1B685B6953
:10526000019308BD4C02030008B5024B1B689B6903
:10527000019308BD4C02030008B5024B1B68DB69B3
:10528000019308BD4C02030008B5024B1B681B6A62
:10529000019308BD4C02030008B5024B1B685B6B11
:1052A000019308BD6002030008B5024B1B681B6D2B
:1052B000019308BD6002030008B5024B1B685B68E0
:1052C000019308BD2002030008B5024B1B685B690F
:1052D000019308BD2002030008B5034B1B68D3F8F7
:1052E0008830019308BD00002002030008B5034B7D
:1052F0001B68D3F89430019308BD0000200203001E
:1053000008B5024B1B685B68019308BD40020300AF
:1053100008B5024B1B689B68019308BD400203005F
:1053200008B5024B1B68DB68019308BD400203000F
:1053300008B5024B1B681B69019308BD40020300BE
:1053400008B5024B1B685B69019308BD400203006E
:1053500008B5024B1B689B69019308BD400203001E
:1053600008B5024B1B68DB69019308BD40020300CE
:1053700008B5024B1B681B6A019308BD400203007D
:1053800008B5024B1B681B6B019308BD400203006C
:1053900008B5024B1B685B6B019308BD400203001C
:1053A00008B5024B1B68DB6B019308BD4402030088
:1053B00008B5024B1B681B68019308BD1C02030063
:1053C00008B5024B1B685B68019308BD1C02030013
:1053D00008B5024B1B685B6A019308BD1C02030001
:1053E00008B5024B1B68DB6B019308BD1C02030070
:1053F000002211464068FFF7BBBF002211464068FB
:10540000FFF7C6BF00224068FFF7BABF002281F055
:1054100001014068FFF7A4BF00231A4619464068FF
:10542000FFF796BF00231A4619464068FFF788BF6A
:10543000002211464068FFF77BBF002211464068FA
:10544000FFF766BF002202214068FFF769BF002313
:105450001A464068FFF754BF024B03225A60024AC3
:105460001A607047DCE30320447A0D0010B504464F
:1054700001700846FFF7C8FD00236360204610BD99
:105480000078FFF7C9BD10B50446006818B1FFF7F2
:1054900097FF0023236010BD10B50446FFF7F3FF0C
:1054A000204610BD10B5094C00204FF6FF73206058
:1054B000A080A07120816381FFF7FEFE2046044A90
:1054C0000449BDE8104001F033B800BFE4E3032015
:1054D00050E2032099540D0010B50446006808B14D
:1054E000FFF7E2FD204610BD10B5064C0023204614
:1054F0002360FFF7D1FD2046034A0449BDE8104070
:1055000001F016B8F0E3032050E20320D9540D0057
:10551000F8B506460D468F180024BD420CD03368FE
:1055200015F8011B9B6830469847002801DB0444AE
:10553000F3E7002C08BF04462046F8BD70B50546C9
:105540000C46084649B101F0C9FD2B6802462146C8
:105550002846DB68BDE87040184770BD08B5FFF706
:10556000EDFF08BD03689B68184738B50D21054657
:10557000FFF7F8FF0A2104462846FFF7F3FF20440F
:1055800038BD38B50546FFF7D9FF04462846FFF772
:10559000ECFF204438BD30B58BB00B4600218DF8B0
:1055A0002410012A98BF0A220DF12304B3FBF2F55F
:1055B00005FB123303F0FF03092B94BF303337335D
:1055C000DBB2214604F801392B46002DEED1FFF75E
:1055D000B5FF0BB030BD0CB42DE9F04387B000AF80
:1055E00007F13804054654F8049B3C600E462346F8
:1055F0004A461421381DFFF7EBFE132805D8391D44
:105600002846FFF79BFF044613E000F1080323F050
:105610000703E846ADEB030D411C23464A466846A6
:105620003C60FFF7D5FE69462846FFF787FF044632
:10563000C5461EB12846FFF798FF044420461C3794
:10564000BD46BDE8F04302B070470000014B024A7E
:105650001A607047F4E30320E37A0D00024B1A68E6
:10566000024B1A60704700BFE8E10320F8E3032013
:105670000021FFF729BE10B50446FEF78DFE204637
:1056800010BD00000348044A04490023836000F071
:105690004FBF00BFFCE3032050E2032077560D000C
:1056A00008B50C4B33B100F069F903681B699847E2
:1056B000002809DC084B63B100F0E2F903681B69BC
:1056C0009847002803DC08BDAFF30080F2E7AFF392
:1056D000008008BD000000000000000008B5FFF7D2
:1056E000DFFFFFF7B9FC014B186008BD30E703206E
:1056F0000248034A0349121A01F0ACBC00F403202B
:1057000004F40320E07D0D0007B5002300931A4642
:105710006FF07701FFF7EAFD03B05DF804FB0000CE
:1057200007B543880A2B08D0502B09D1094B1B68B9
:105730003BB103B05DF804EB1847FFF7E5FF06E067
:10574000002300931A466FF07701FFF7CFFD03B0F7
:105750005DF804FB0CE4032038B5104C104D2368B1
:10576000AB42104B0CBF012200221A7002D0FFF78F
:10577000BFFF2560FFF760FC044601F07FFC0A4B89
:1057800013B12046AFF3008000210748FFF708FE61
:1057900000210648BDE83840FFF79EBD00F4032015
:1057A0001E1C279A10E403200000000021570D0062
:1057B000704710B51821044600F0C8FE204610BD01
:1057C000F0B5037D062B8DB00E4600F104074FF0B7
:1057D000000402D000F1080518E00CAD394605F8C8
:1057E000304D2F232A460A20FFF766FC284601F099
:1057F00075FC33680246DB682946304698470FE05F
:1058000024B12E213046FFF7ADFE044415F8011DEA
:105810000A223046FFF7BFFEBD420444F0D12046C5
:105820000DB0F0BD10B5054B0446112240F8043B05
:10583000002101F01AFC204610BD00BF747B0D0052
:105840000346074A10B543F8042B01F1100251F842
:10585000044B43F8044B9142F9D10A781A7010BDF9
:10586000747B0D00037D042B01D1406808E0062BFA
:105870000AD1436853B9836843B9C36833B900692F
:10588000003018BF0120704700207047012070478A
:1058900010B59DF8084044EA032343EA024242EA75
:1058A000016104234160037510BD37B50D788B7815
:1058B0004A78C97800912946FFF7EAFF03B030BD66
:1058C00041747047704708B50021007CFFF7CCFC9D
:1058D00030EA200028BF4FF0FF3008BD08B5012195
:1058E000007CFFF7C1FC30EA200028BF4FF0FF30FA
:1058F00008BD08B5007CFFF7AFFC20EAE07008BDEA
:1059000008B5007CFFF7A0FC20EAE07008BD007C31
:10591000FFF7BABC10B51421044600F017FE20466C
:1059200010BD38B50446007C0D46FFF795FC0028F5
:1059300001DC607C28B12946207CFFF79DFC20EA31
:10594000E07038BD10B50446002363604FF47A73ED
:10595000A360054B2360012308462174637411463C
:10596000FFF76AFC204610BD887B0D0010B514229D
:105970000446002101F079FB204610BD30B50E4DE4
:1059800087B001A8FFF7F2FF296811F0010410D1D8
:105990002846FEF793FB60B101AA21460748FFF7AE
:1059A000D1FF2846FEF78FFB054A0649034800F061
:1059B000BFFD024807B030BD14E4032018E4032003
:1059C00050E20320C5580D0070474174704708B578
:1059D000007CFFF7C1FB20EAE07008BD08B5007C41
:1059E000FFF792FB20EAE07008BD08B5007CFFF7E6
:1059F0009BFB30EA200028BF4FF0FF3008BD08B500
:105A0000007CFFF789FB30EA200028BF4FF0FF3011
:105A100008BD007CFFF790BB10B51421044600F0D0
:105A200095FD204610BD70B5457C04460E4625B94F
:105A3000007CFFF791FB002805DD3146207CBDE8A6
:105A40007040FFF759BB284670BD000010B50446F2
:105A500008461146002262604FF47A72A260054A3D
:105A600022600122207462741A46FFF73DFB204633
:105A700010BD00BFB87B0D00007CFFF765BB0000C8
:105A800038B50C4D296811F0010411D12846FEF7F4
:105A900015FB68B1084A094B09482146FFF7D6FFB4
:105AA0002846FEF710FB074A0749054800F040FD6D
:105AB000034838BDC4E40320C8E4032040E40320C5
:105AC0002CE4032050E20320C9590D007047F8B5BB
:105AD000064615460C468F18BC4206D0336814F8AB
:105AE000011B9B6830469847F6E72846F8BD002220
:105AF000007CFFF739BB0021007CFFF73DBB002194
:105B0000007CFFF741BB0021007CFFF745BB002173
:105B1000007CFFF749BB10B51421044600F016FDC8
:105B2000204610BD10B50446002363604FF47A731D
:105B3000A360044B2174084623601146FFF744FB21
:105B4000204610BDE87B0D000021007CFFF734BB30
:105B5000002211464068FFF70BBC00221146406846
:105B6000FFF716BC00224068FFF70ABC002281F054
:105B700001014068FFF7F4BB00231A460121406889
:105B8000FFF7E6BB00231A4619464068FFF7D8BB6B
:105B9000002211464068FFF7CBBB00221146406847
:105BA000FFF7B6BB002202214068FFF7B9BB002314
:105BB0001A464068FFF7A4BB38B5054688B10468AB
:105BC0004CB1A3681BB103222146204698471021FF
:105BD000204600F0BBFC28461421BDE8384000F008
:105BE000B5BC38BD10B103685B681847704710B585
:105BF00003680446BBB15868FFF736FA78B92368E2
:105C00005A7C12B95868FFF737FA23685868FFF7CB
:105C10003BFA20680023236028B1FFF7CDFF2068FE
:105C200008B1FFF7C9FF204610BD38B50446D0F8CB
:105C3000C40108B1FEF735FAD4F8C00108B1FFF786
:105C400033FAD4F8BC5135B12846FFF7D0FF042110
:105C5000284600F07BFC206808B1FFF7C3FF204610
:105C600038BD000010B5044B044640F8083BFFF770
:105C7000DCFF204610BD00BF107C0D0038B50E4C77
:105C80000E4B23600025022304F5E4706360A560D9
:105C9000C4F8C451C4F8C851FFF7FEF9084BC4F862
:105CA000CC5184F8D05123602046064A0649BDE80D
:105CB000384000F03DBC00BF4CE50320F87C0D00EF
:105CC000107C0D0050E20320655C0D0037B502AC7E
:105CD000036804F8011DDD6B01224FF0FF332146FC
:105CE000A84703B030BD10B40368DC6B4FF0FF333E
:105CF000A4465DF8044B604737B502AC036804F86E
:105D0000011DDD6B214613460122A84703B030BDBB
:105D1000704738B543691A68002A044605DAB3F8B3
:105D20008620B3F884309A4201D001250BE0036845
:105D30001B699847002814BF0125002503D123685B
:105D40002046DB6A9847284638BD43691868C04337
:105D5000C00F704770470020704710B514210446EB
:105D600000F0F4FB204610BDFEF799B97FB516464A
:105D700000224260029203925A1C04460D4608D04B
:105D80004FF47A72B3FBF2F1029102FB11314A43F4
:105D9000039260690823009341F205026B4440F6C8
:105DA000FF710068FFF718FA002808DB606900231C
:105DB000324629460068FFF72FFA002804DAFFF779
:105DC0000FFB03686360002004B070BD10B503686A
:105DD00004469B689847A368013BA3602BB92368DE
:105DE0002046DB68BDE81040184710BD70B504467A
:105DF0004D69054B44F8043B8C3506460FCD0FC466
:105E00002B682370304670BD747B0D0010B543695C
:105E1000B3F88620B3F884309A42044605D062690C
:105E2000B2F884301344187910BD03681B69984791
:105E30000028F4D14FF0FF3010BD10B54369B3F81E
:105E40008620B3F884309A42044608D06269B2F8DA
:105E50008430591C1344A2F88410187910BD0368CB
:105E60001B6998470028F1D14FF0FF3010BDF8B5FD
:105E700043691746B3F88620B3F884309A42054642
:105E80000E4606D103681B69984710B94FF0FF34DE
:105E900014E06969B1F88430B1F88640E41ABC4274
:105EA00028BF3C46194422460431304601F0D2F85E
:105EB0006A69B2F884302344A2F884302046F8BDE1
:105EC0002DE9F0439846036893B0DB6A0D46064619
:105ED0001746984712AB002443F8484D2246214606
:105EE0002846FFF779F8814600283DD1009B002B1A
:105EF00056D05B69002B53D006A8FFF793FC009B9C
:105F00005C696378022B01D1211D13E00A2B14D1A7
:105F10001122494601A801F0A8F8A36833BBE36841
:105F200023BB4FF6FF702569FFF7CEF885421DD1E0
:105F300004F1140106A8FFF7B8FC06A8FFF792FCCD
:105F400000282DD0336807ADD3F82090184B0C9360
:105F50000FCD0DAC0FC42B6823703A4643460CA9F5
:105F60003046C84781461BE0A14619E004F108030A
:105F700001AD1834186859682A4603C20833A34291
:105F80001546F7D1062301A90CA80DAD8DF81430E4
:105F9000FFF756FC0FCD07AC0FC42B682370CCE77E
:105FA0000098FFF711F8484613B0BDE8F08300BF32
:105FB000747B0D0042690023A2F884304269A2F884
:105FC000863070472DE9F0411E4603680C468AB0C2
:105FD000DB6A054617469847237DD5F81480042BC5
:105FE0000CBF02200A2006220121FFF71DF9C8F884
:105FF00000006B691B68002B18DB2846FFF7DAFFEF
:10600000D6B1002303A9F0B20393ADF81030FFF727
:106010000BF858B968690623009341F20B0203ABF1
:1060200040F6FF710068FFF7D7F828B12B682846C3
:10603000DB6A002498473BE01C263246002103A877
:1060400001F013F8237D8DF80C60042B0CD1022392
:1060500038468DF80D30FFF73FF8ADF80E00606858
:10606000FFF732F8049013E00A2338468DF80D301C
:10607000FFF732F805AEADF80E00231D04F114074A
:1060800018685968324603C20833BB421646F7D136
:106090006B691C2203A91868FFF7AEF80028C5D168
:1060A00004340FCC6D698C350FC523682B70012427
:1060B00020460AB0BDE8F08110B54369044618686F
:1060C000002801DBFFF790F863694FF0FF321A6098
:1060D0006069112200218C3000F0C7FF2046BDE826
:1060E0001040FFF767BF000030B54269B2F8863054
:1060F0008BB004461BB1B2F884209A4240D0636949
:10610000186800283FDBB3F886507F2D3BD8191D57
:10611000C5F1800208232944FFF776F800280CDD3A
:106120006369B3F886200AB9A3F884206269B2F8DB
:1061300086301844A2F8860025E0FFF751F903687D
:106140000B2B20D0FFF74CF903680B2B1BD020231F
:10615000002502930395FFF743F9036801930E4B63
:10616000009302AA2B460D493220FFF79DF8636980
:106170001868FFF739F863694FF0FF321A6002E0E0
:10618000FFF718FFBBE76269B2F88630B2F8840007
:10619000181A0BB030BD00BFAB7C0D00A47C0D0005
:1061A00010B5002304460160A0F88430A0F88630C2
:1061B0008830FFF737FB204610BD00004FF47A729D
:1061C00070B500238260144A4360026043618361BA
:1061D0000446A0200E46FDF760FF054610B131468B
:1061E000FFF7DEFF1420FDF758FF034628B1012218
:1061F00042608260094A02600561A0696561A3612D
:1062000028B14368013B43600BB9FFF7DFFD20462F
:10621000FFF7D0FE204670BD607C0D00447C0D0071
:1062200010B54FF0FF310446FFF7C8FF204610BD00
:1062300010B504460068002801DBFEF7D5FF2046B4
:1062400010BD10B504692046FFF7F2FF24B12046C7
:10625000BDE81040FDF723BF10BD00221146406885
:10626000FFF766B8002211464068FFF781B80022A8
:1062700011464068FFF78CB800224068FFF780B8ED
:10628000002281F001014068FFF76AB800231A4636
:1062900019464068FFF75CB800231A461946406863
:1062A000FFF74EB8002211464068FFF731B80022D0
:1062B00002214068FFF734B800231A464068FFF710
:1062C0001FB80000024B04225A60024A1A6070474D
:1062D00020E70320C47C0D0000231A464068FFF726
:1062E0000FB8002202214068FFF71AB800221146B9
:1062F0004068FFF70DB8002211464068FFF718B854
:1063000000231A4619464068FFF71AB800231A46B8
:1063100019464068FFF71CB8002281F0010140686F
:10632000FFF71EB800224068FFF72AB80022114686
:106330004068FFF72DB8002211464068FFF718B8F3
:106340002DE9F043002495B016460D460746FFF7A9
:1063500069FA214620220CA8009400F086FE402312
:106360000C9321466B460CAA3046FEF735FE0446D8
:10637000002844D1024601216868FEF7D9FF0221B6
:10638000804622466868FEF7D3FF009E814621467C
:10639000002E34D0002932D17368022B02D00A2B90
:1063A00009D02AE0B8F1000F27D0716938460431CE
:1063B000FFF77BFA20E0B9F1000F1ED074691122BB
:1063C00001A800F052FE06238DF8143001AD04F14F
:1063D00008031834186859682A4603C20833A342D0
:1063E0001546F7D101A906A807ADFFF729FA0FCD89
:1063F0003C1D0FC42B6823700121F669C8E7009883
:10640000FEF7E2FD384615B0BDE8F083024B034AC3
:106410001A6000225A60704728E70320F87C0D00BC
:1064200070B5184E316811F0010504460AD13046A6
:10643000FDF744FE30B129461348FFF717F8304600
:10644000FDF741FE1048FFF71BF828B1A4F10B033C
:10645000022B01D8002070BD00F044F8FFF774FB58
:1064600008B1012CF6D9FFF70BFBFFF705FB18B1BC
:10647000A4F10903012BEDD9232C8CBF00200120AE
:1064800070BD00BFB0E30320B4E30320232838B578
:1064900004460D460AD8FF2908D0FFF7C1FF28B1EE
:1064A00029462046BDE83840FEF7A6BD38BD0000AD
:1064B00070B5044614252A46094E002100F0D5FD8A
:1064C000258020253146A5602561284600F040F84A
:1064D00031466060284600F03BF8E060204670BD21
:1064E000247D0D0030B50E4D296811F0010487B0F0
:1064F00013D12846FDF7E2FD78B101A8FFF7D8FFD8
:1065000001AA21460748FFF70DFB2846FDF7DBFDF2
:10651000054A0649034800F00BF8024807B030BDB1
:1065200034E7032038E7032050E20320CD5A0D0062
:106530000B460146184600F07FBD0000024B18686C
:10654000BFF35F8F704700BF4CE70320FDF7A7BD87
:1065500000F000B810B5002814BF044601242046FE
:10656000FEF726FF20B9FFF7E9FF08B18047F6E7FD
:1065700010BD0000184B1A68D1075CBF01221A60D9
:10658000164B1A68D2075CBF01221A60144B1A68B6
:10659000D0075CBF01221A60124B1A68D1075CBF9A
:1065A00001221A60104B1A68D2075CBF01221A60E0
:1065B0000E4B1A68D0075CBF01221A600C4B1A6898
:1065C000D1075CBF01221A600A4B1A68D2075CBF70
:1065D00001221A60704700BF6CE7032068E70320C0
:1065E00064E7032060E703205CE7032058E703200B
:1065F00054E7032050E70320244B1A68D0075CBF00
:1066000001221A60224B1A68D1075CBF01221A606E
:10661000204B1A68D2075CBF01221A601E4B1A6811
:10662000D0075CBF01221A601C4B1A68D1075CBFFF
:1066300001221A601A4B1A68D2075CBF01221A6045
:10664000184B1A68D0075CBF01221A60164B1A68F3
:10665000D1075CBF01221A60144B1A68D2075CBFD5
:1066600001221A60124B1A68D0075CBF01221A601F
:10667000104B1A68D1075CBF01221A600E4B1A68D2
:10668000D2075CBF01221A60704700BF9CE703205D
:1066900098E7032094E7032090E703208CE703208A
:1066A00088E7032084E7032080E703207CE70320BA
:1066B00078E7032074E7032070E70320244B1A686F
:1066C000D0075CBF01221A60224B1A68D1075CBF59
:1066D00001221A60204B1A68D2075CBF01221A609F
:1066E0001E4B1A68D0075CBF01221A601C4B1A6847
:1066F000D1075CBF01221A601A4B1A68D2075CBF2F
:1067000001221A60184B1A68D0075CBF01221A6078
:10671000164B1A68D1075CBF01221A60144B1A6825
:10672000D2075CBF01221A60124B1A68D0075CBF07
:1067300001221A60104B1A68D1075CBF01221A604F
:106740000E4B1A68D2075CBF01221A60704700BF67
:10675000CCE70320C8E70320C4E70320C0E70320F9
:10676000BCE70320B8E70320B4E70320B0E7032029
:10677000ACE70320A8E70320A4E70320A0E7032059
:10678000184B1A68D1075CBF01221A60164B1A68B1
:10679000D2075CBF01221A60144B1A68D0075CBF95
:1067A00001221A60124B1A68D1075CBF01221A60DD
:1067B000104B1A68D2075CBF01221A600E4B1A6890
:1067C000D0075CBF01221A600C4B1A68D1075CBF6E
:1067D00001221A600A4B1A68D2075CBF01221A60B4
:1067E000704700BFECE70320E8E70320E4E703205D
:1067F000E0E70320DCE70320D8E70320D4E7032009
:10680000D0E7032081F0004102E000BF83F00043A5
:1068100030B54FEA41044FEA430594EA050F08BF3B
:1068200090EA020F1FBF54EA000C55EA020C7FEAFF
:10683000645C7FEA655C00F0E2804FEA5454D4EB7C
:106840005555B8BF6D420CDD2C4480EA020281EA46
:10685000030382EA000083EA010180EA020281EA7E
:106860000303362D88BF30BD11F0004F4FEA0131D0
:106870004FF4801C4CEA113102D0404261EB4101DF
:1068800013F0004F4FEA03334CEA133302D0524265
:1068900063EB430394EA050F00F0A780A4F1010421
:1068A000D5F1200E0DDB02FA0EFC22FA05F280185B
:1068B00041F1000103FA0EF2801843FA05F3594141
:1068C0000EE0A5F120050EF1200E012A03FA0EFCC0
:1068D00028BF4CF0020C43FA05F3C01851EBE371EA
:1068E00001F0004507D54FF0000EDCF1000C7EEB07
:1068F00000006EEB0101B1F5801F1BD3B1F5001F45
:106900000CD349085FEA30004FEA3C0C04F1010463
:106910004FEA445212F5800F80F09A80BCF1004F8C
:1069200008BF5FEA500C50F1000041EB045141EA0E
:10693000050130BD5FEA4C0C404141EB010111F40F
:10694000801FA4F10104E9D191F0000F04BF0146BA
:106950000020B1FA81F308BF2033A3F10B03B3F198
:1069600020020CDA0C3208DD02F1140CC2F10C0228
:1069700001FA0CF021FA02F10CE002F11402D8BF86
:10698000C2F1200C01FA02F120FA0CFCDCBF41EA52
:106990000C019040E41AA2BF01EB0451294330BD21
:1069A0006FEA04041F3C1CDA0C340EDC04F11404FE
:1069B000C4F1200220FA04F001FA02F340EA0300D5
:1069C00021FA04F345EA030130BDC4F10C04C4F11B
:1069D000200220FA02F001FA04F340EA03002946FB
:1069E00030BD21FA04F0294630BD94F0000F83F445
:1069F000801306BF81F480110134013D4EE77FEA28
:106A0000645C18BF7FEA655C29D094EA050F08BF73
:106A100090EA020F05D054EA000C04BF1946104654
:106A200030BD91EA030F1EBF0021002030BD5FEA98
:106A3000545C05D14000494128BF41F0004130BDC0
:106A400014F580043CBF01F5801130BD01F0004514
:106A500045F0FE4141F470014FF0000030BD7FEA87
:106A6000645C1ABF194610467FEA655C1CBF0B4682
:106A7000024650EA013406BF52EA033591EA030F99
:106A800041F4002130BD00BF90F0000F04BF002191
:106A9000704730B54FF4806404F132044FF00005C4
:106AA0004FF0000150E700BF90F0000F04BF00213D
:106AB000704730B54FF4806404F1320410F00045A3
:106AC00048BF40424FF000013EE700BF42004FEA9E
:106AD000E2014FEA31014FEA02701FBF12F07F431B
:106AE00093F07F4F81F06051704792F0000F14BF18
:106AF00093F07F4F704730B54FF4607401F000455C
:106B000021F0004120E700BF50EA010208BF7047B2
:106B100030B54FF000050AE050EA010208BF7047A7
:106B200030B511F0004502D5404261EB41014FF410
:106B3000806404F132045FEA915C3FF4DCAE4FF014
:106B400003025FEADC0C18BF03325FEADC0C18BFFB
:106B5000033202EBDC02C2F1200300FA03FC20FA4C
:106B600002F001FA03FE40EA0E0021FA02F1144499
:106B7000C1E600BF70B54FF0FF0C4CF4E06C1CEAAE
:106B800011541DBF1CEA135594EA0C0F95EA0C0F23
:106B900000F0DEF82C4481EA030621EA4C5123EA96
:106BA0004C5350EA013518BF52EA033541F48011C5
:106BB00043F4801338D0A0FB02CE4FF00005E1FB78
:106BC00002E506F00042E0FB03E54FF00006E1FBC2
:106BD00003569CF0000F18BF4EF0010EA4F1FF0405
:106BE000B6F5007F64F5407404D25FEA4E0E6D4145
:106BF00046EB060642EAC62141EA55514FEAC52056
:106C000040EA5E504FEACE2EB4F1FD0C88BFBCF5D1
:106C1000E06F1ED8BEF1004F08BF5FEA500E50F182
:106C2000000041EB045170BD06F0004646EA010148
:106C300040EA020081EA0301B4EB5C04C2BFD4EB7A
:106C40000C0541EA045170BD41F480114FF0000E73
:106C5000013C00F3AB8014F1360FDEBF002001F0E1
:106C6000004170BDC4F10004203C35DA0C341BDC5B
:106C700004F11404C4F1200500FA05F320FA04F02D
:106C800001FA05F240EA020001F0004221F0004161
:106C900010EBD37021FA04F642EB06015EEA430ED4
:106CA00008BF20EAD37070BDC4F10C04C4F1200504
:106CB00000FA04F320FA05F001FA04F240EA0200B7
:106CC00001F0004110EBD37041F100015EEA430E88
:106CD00008BF20EAD37070BDC4F1200500FA05F2A8
:106CE0004EEA020E20FA04F301FA05F243EA020327
:106CF00021FA04F001F0004121FA04F220EA020036
:106D000000EBD3705EEA430E08BF20EAD37070BD7B
:106D100094F0000F0FD101F00046400041EB01015B
:106D200011F4801F08BF013CF7D041EA060195F03D
:106D3000000F18BF704703F00046520043EB0303F7
:106D400013F4801F08BF013DF7D043EA06037047E4
:106D500094EA0C0F0CEA135518BF95EA0C0F0CD0EF
:106D600050EA410618BF52EA4306D1D181EA030135
:106D700001F000414FF0000070BD50EA410606BF2F
:106D80001046194652EA430619D094EA0C0F02D174
:106D900050EA013613D195EA0C0F05D152EA0336B9
:106DA0001CBF104619460AD181EA030101F00041D7
:106DB00041F0FE4141F470014FF0000070BD41F020
:106DC000FE4141F4780170BD70B54FF0FF0C4CF4FA
:106DD000E06C1CEA11541DBF1CEA135594EA0C0F19
:106DE00095EA0C0F00F0A7F8A4EB050481EA030E66
:106DF00052EA03354FEA013100F088804FEA03334D
:106E00004FF0805545EA131343EA12634FEA02221A
:106E100045EA111545EA10654FEA00260EF00041DB
:106E20009D4208BF964244F1FD0404F5407402D22D
:106E30005B084FEA3202B61A65EB03055B084FEABE
:106E400032024FF480104FF4002CB6EB020E75EBBB
:106E5000030E22BFB61A754640EA0C005B084FEAE3
:106E60003202B6EB020E75EB030E22BFB61A754660
:106E700040EA5C005B084FEA3202B6EB020E75EBAB
:106E8000030E22BFB61A754640EA9C005B084FEA23
:106E90003202B6EB020E75EB030E22BFB61A754630
:106EA00040EADC0055EA060E18D04FEA051545EA1F
:106EB00016754FEA06164FEAC30343EA52734FEAC8
:106EC000C2025FEA1C1CC0D111F4801F0BD141EA41
:106ED00000014FF000004FF0004CB6E711F4801FA6
:106EE00004BF01430020B4F1FD0C88BFBCF5E06F86
:106EF0003FF6AFAEB5EB030C04BFB6EB020C5FEA96
:106F0000500C50F1000041EB045170BD0EF0004EEA
:106F10004EEA113114EB5C04C2BFD4EB0C0541EA1C
:106F2000045170BD41F480114FF0000E013C90E619
:106F300045EA060E8DE60CEA135594EA0C0F08BFDD
:106F400095EA0C0F3FF43BAF94EA0C0F0AD150EADC
:106F500001347FF434AF95EA0C0F7FF425AF10466F
:106F600019462CE795EA0C0F06D152EA03353FF497
:106F7000FDAE1046194622E750EA410618BF52EA14
:106F800043067FF4C5AE50EA41047FF40DAF52EAE8
:106F900043057FF4EBAE12E74FEA4102B2F1E04362
:106FA00024BFB3F5001CDCF1FE5C0DD901F0004CF0
:106FB0004FEAC0024CEA5070B2F1004F40EB830040
:106FC00008BF20F00100704711F0804F21D113F16C
:106FD0003872BCBF01F00040704741F480114FEAA5
:106FE0005252C2F11802C2F1200C10FA0CF320FA2E
:106FF00002F018BF40F001004FEAC1234FEAD3234B
:1070000003FA0CFC40EA0C0023FA02F34FEA4303B4
:10701000CCE77FEA625307D150EA01331EBF4FF03D
:10702000FE4040F44000704701F0004040F0FE4058
:1070300040F40000704700BF10B5054C13462CB15A
:107040000A4601460220AFF3008010BD204610BD65
:107050000000000010B5431E0A44914204D011F80C
:10706000014B03F8014FF8E710BD02440346934279
:1070700002D003F8011BFAE77047000038B5124B45
:107080001C68A36B0546D3B91820FEF791F943F2AB
:107090000E33A06303804AF6CD33438041F234239C
:1070A00083804EF26D63C3804DF6EC63038105234C
:1070B00043810B23838101220023C0E90423A36BB6
:1070C00000221D615A6138BD4CE20320034611F8CD
:1070D000012B03F8012B002AF9D17047034613F85E
:1070E000012B002AFBD1181A0138704710B503464E
:1070F00042B111F8014B03F8014B013A002CF7D1D2
:107100001A4400E010BD934202D003F8014BFAE7A5
:1071100010BD000021400D005D400D0089400D00B4
:107120008D400D0000000000436F6E6E6563746952
:107130006E6720746F204D5154542E2E2E20005215
:1071400065747279696E67204D51545420636F6E77
:107150006E656374696F6E20696E20352073656398
:107160006F6E64732E2E2E004D51545420436F6E5B
:107170006E6563746564210050696E67696E67208F
:107180004D515454200A00446973636F6E6E6563F9
:1071900074696E67200A006E69636B736B79686946
:1071A000676800696F2E61646166727569742E6329
:1071B0006F6D0061696F5F5A6A4344363574787544
:1071C000726A635366545837434C706F6E6B5A72D1
:1071D000676D3000000000000000000079430D00E2
:1071E0007D430D00E9420D0041430D0044485431F8
:1071F00031004448543232006E7266785F693273EF
:107200005F696E6974206572726F723D256C7500DE
:107210006E7266785F6932735F7374617274206531
:1072200072726F723D256C750062616420636865DF
:10723000636B73756D0070616972733D25642065C1
:107240007870656374656420343000726574727997
:10725000696E670000000000000000007B430D0025
:107260008B430D00CD420D00DB420D0000000000FD
:1072700000000000CD400D0011420D00D94A0D0064
:1072800011550D0015470D00D9470D009D450D0006
:1072900029440D0099480D002F490D0067490D0044
:1072A00083490D0000000000000000000000000005
:1072B00000000000D94A0D0011550D00A9400D0035
:1072C000D9470D00F9480D0015490D0099480D00EA
:1072D0002F490D0067490D0083490D000000000093
:1072E000003E5B4F5B3E3E6B4F6B3E1C3E7C3E1C4C
:1072F000183C7E3C181C577D571C1C5E7F5E1C0092
:10730000183C1800FFE7C3E7FF0018241800FFE748
:10731000DBE7FF30483A060E2629792926407F050B
:107320000507407F05253F5A3CE73C5A7F3E1C1C21
:1073300008081C1C3E7F14227F22145F5F005F5FE1
:1073400006097F017F006689956A606060606094CD
:10735000A2FFA29408047E040810207E20100808D2
:107360002A1C08081C2A08081E101010100C1E0CDD
:107370001E0C30383E3830060E3E0E06000000006F
:107380000000005F00000007000700147F147F1456
:10739000242A7F2A1223130864623649562050009B
:1073A00008070300001C2241000041221C002A1C87
:1073B0007F1C2A08083E0808008070300008080872
:1073C0000808000060600020100804023E51494592
:1073D0003E00427F400072494949462141494D33B0
:1073E0001814127F1027454545393C4A4949314117
:1073F000211109073649494936464949291E0000E5
:107400001400000040340000000814224114141439
:107410001414004122140802015909063E415D5925
:107420004E7C1211127C7F494949363E414141222E
:107430007F4141413E7F494949417F090909013E58
:10744000414151737F0808087F00417F410020407F
:10745000413F017F081422417F404040407F021C91
:10746000027F7F0408107F3E4141413E7F090909A8
:10747000063E4151215E7F09192946264949493274
:1074800003017F01033F4040403F1F2040201F3F3A
:107490004038403F631408146303047804036159BF
:1074A000494D43007F414141020408102000414101
:1074B000417F0402010204404040404000030708AD
:1074C0000020545478407F284444383844444428A9
:1074D000384444287F385454541800087E09021850
:1074E000A4A49C787F0804047800447D40002040D8
:1074F000403D007F1028440000417F40007C04781C
:1075000004787C080404783844444438FC18242463
:107510001818242418FC7C080404084854545424E3
:1075200004043F44243C4040207C1C2040201C3C60
:107530004030403C44281028444C9090907C446457
:10754000544C4400083641000000770000004136EA
:10755000080002010204023C2623263C1EA1A16170
:10756000123A4040207A38545455592155557941A2
:107570002154547841215554784020545579400C79
:107580001E5272123955555559395454545939555A
:107590005454580000457C410002457D420001459D
:1075A0007C40F0292429F0F0282528F07C5455450A
:1075B000002054547C547C0A097F4932494949329D
:1075C0003248484832324A4848303A4141217A3AB2
:1075D00042402078009DA0A07D39444444393D407C
:1075E00040403D3C24FF2424487E4943662B2FFC29
:1075F0002F2BFF0929F620C0887E090320545479D7
:10760000410000447D413048484A32384040227AA7
:10761000007A0A0A727D0D19317D2629292F282624
:107620002929292630484D4020380808080808082C
:107630000808382F10C8ACBA2F102834FA00007B85
:10764000000008142A142222142A1408AA00550043
:10765000AAAA55AA55AA000000FF00101010FF00AA
:10766000141414FF001010FF00FF1010F010F0149D
:107670001414FC001414F700FF0000FF00FF1414A2
:10768000F404FC141417101F10101F101F141414EE
:107690001F00101010F0000000001F101010101F2D
:1076A00010101010F010000000FF1010101010103B
:1076B000101010FF10000000FF140000FF00FF007A
:1076C000001F10170000FC04F414141710171414F2
:1076D000F404F40000FF00F714141414141414F745
:1076E00000F7141414171410101F101F141414F49E
:1076F000141010F010F000001F101F0000001F14E5
:10770000000000FC140000F010F01010FF10FF1437
:107710001414FF141010101F00000000F010FFFFE1
:10772000FFFFFFF0F0F0F0F0FFFFFF0000000000AF
:10773000FFFF0F0F0F0F0F38444438447C2A2A3EB6
:10774000147E02020606027E027E026355494163F0
:107750003844443C04407E201E2006027E020299EA
:10776000A5E7A5991C2A492A1C4C7201724C304A83
:107770004D4D303048784830BC625A463D3E49490C
:1077800049007E0101017E2A2A2A2A2A44445F44B4
:107790004440514A444040444A51400000FF0103E4
:1077A000E080FF000008086B6B08361236243606AE
:1077B0000F090F06000018180000001010003040DC
:1077C000FF0101001F01011E00191D1712003C3CA2
:1077D0003C3C000000000000000000000000000031
:1077E000CF400D001F420D00574B0D00034C0D0004
:1077F000354C0D006B4B0D00AB4B0D000000000035
:10780000000000000000000000000000A9400D0082
:10781000A9400D00A9400D00A9400D00A9400D0090
:1078200081780D0095780D0065780D00A7780D0022
:10783000EC780D0031790D0051790D0084790D003F
:107840009E790D00D5790D00205B3078005D2C20ED
:10785000000A090044726F707065642061207061D5
:10786000636B657400556E6B6E6F776E2065727218
:107870006F72004D51545400252525642E256466F1
:10788000004661696C656420746F20737562736370
:107890007269626500436F6E6E656374696F6E2016
:1078A0006661696C6564005468652053657276652D
:1078B0007220646F6573206E6F7420737570706FC3
:1078C000727420746865206C6576656C206F662024
:1078D000746865204D5154542070726F746F636FDB
:1078E0006C207265717565737465640054686520F9
:1078F000436C69656E74206964656E746966696558
:107900007220697320636F727265637420555446E8
:107910002D3820627574206E6F7420616C6C6F77E7
:10792000656420627920746865205365727665729B
:1079300000546865204D5154542073657276696314
:107940006520697320756E617661696C61626C6532
:1079500000546865206461746120696E20746865F4
:107960002075736572206E616D65206F7220706185
:107970007373776F7264206973206D616C666F72C8
:107980006D6564004E6F7420617574686F72697AFA
:10799000656420746F20636F6E6E65637400457854
:1079A000636565646564207265636F6E6E6563749C
:1079B0002072617465206C696D69742E20506C654D
:1079C0006173652074727920616761696E206C61F2
:1079D0007465722E00596F75206861766520626546
:1079E000656E2062616E6E65642066726F6D2063E5
:1079F0006F6E6E656374696E672E20506C6561737F
:107A00006520636F6E7461637420746865204D51E6
:107A10005454207365727665722061646D696E6975
:107A200073747261746F7220666F72206D6F72650D
:107A30002064657461696C732E0000000000000012
:107A4000000000004F540D0045540D003B540D0044
:107A500031540D0025540D0019540D000D540D0026
:107A600005540D00FB530D00F1530D0041630D0053
:107A7000626175640053657269616C005365726977
:107A8000616C31007479706500706172616D0063C2
:107A90006D6400696400686E64007374726D0066E2
:107AA000696C74006C766C0061646448616E646C2F
:107AB00065720072656D6F766548616E646C6572A3
:107AC00000656E756D48616E646C657273004A5333
:107AD0004F4E53747265616D4C6F6748616E646C94
:107AE00065720061707000253031307520005D20B6
:107AF0000028293A2000205B00636F6465203D2048
:107B00000025690064657461696C73203D20000D77
:107B10000A006C6E00666E00636F646500646574D5
:107B200061696C006E6F6E650074726163650069F7
:107B30006E666F007761726E0070616E69630061DE
:107B40006C6C005A00252B3033643A2530327500B6
:107B500025592D256D2D25645425483A254D3A2566
:107B600053257A0061736374696D6500000000003D
:107B700000000000C1570D00B1570D00B3570D00B4
:107B80000000000000000000C5580D0015590D0050
:107B900023590D0011550D0001590D00C7580D0056
:107BA000DD580D000F590D00F3580D00C1580D00A0
:107BB0000000000000000000C9590D00195A0D0016
:107BC000275A0D0011550D00DD590D00FF590D000C
:107BD000EB590D00135A0D00CB590D00CF590D0074
:107BE0000000000000000000CD5A0D00175B0D00E2
:107BF000EF5A0D00CF5A0D00F75A0D00FF5A0D0035
:107C0000075B0D000F5B0D0000000000000000008E
:107C1000AF5B0D00A55B0D009B5B0D00915B0D0044
:107C2000855B0D00795B0D006D5B0D00655B0D00E4
:107C30005B5B0D00515B0D0041630D000000000017
:107C400000000000555D0D005B5D0D0043620D00FE
:107C5000695D0D00575D0D00000000000000000090
:107C6000D1400D0005410D00CD5C0D00E75C0D001D
:107C7000E9600D003B5E0D000D5E0D00115D0D0015
:107C8000C55F0D00C15E0D006F5E0D00B9600D0097
:107C9000135D0D004B5D0D00F95C0D006D5D0D0079
:107CA000ED5D0D00776972696E670072656376201D
:107CB0006572726F72203D20256400000000000094
:107CC00000000000B9620D00AF620D00A5620D005A
:107CD0005B620D0099620D008D620D0081620D00E6
:107CE00079620D006F620D0065620D0041630D0049
:107CF0000000000000000000D9620D00E3620D00EA
:107D0000ED620D00F7620D0001630D000D630D00C3
:107D100019630D0025630D002D630D0037630D0001
:107D200041630D00000000000000000000000000A2
:107D30000000000000000000000000000000000043
:107D40000000000000000000000000000000000033
:107D50000000000000000000000000000000000023
:107D60000000000000000000000000000000000013
:107D70000000000000000000000000000000000003
:107D80000000000000000000430000002D420D0034
:107D9000C9420D00E5430D00D5470D00534B0D00C2
:107DA000534C0D00C34F0D0059540D00A5540D0048
:107DB000E9540D004D560D005D560D0085560D0021
:107DC0007D5C0D00C5620D000D640D0075650D0034
:107DD000F9650D00BD660D0081670D000000000013
:047DE000000000009F
:107DE400000103070F1F3F7F0080C0E0F0F8FCFE96
:107DF400000000000000000000000000000000007F
:107E0400000000000000000000000000000000006E
:107E1400000000000000000000000000000000005E
:107E240000000000000000000000000000000080CE
:107E3400808000000000000000000000000000003E
:107E4400008080C0C00000000000000000000000AE
:107E5400000000000000000000000000000000001E
:107E6400000000000000000000000000000000000E
:107E740000000000000000000000000000000000FE
:107E84000000000080C0E0F0F8FCF8E00000000012
:107E9400000000000000000000000000008080805E
:107EA400808000808000000000808080808000FF4F
:107EB400FFFF0000000080808080000080800000C0
:107EC40080FFFF8080008080008080808000808030
:107ED4000000000000808000008C8E84000080F888
:107EE400F8F880000000000000000000000000001E
:107EF400F0F0F0F0F0F0F0F0F0F0F0F0E0E0C0803E
:107F040000E0FCFEFFFFFF7FFFFFFFFFFF0000001C
:107F14000000000000000000000000FEFFC7010197
:107F2400010183FFFF00007CFEC70101010183FF03
:107F3400FFFF0038FEC78301010183C7FFFF000074
:107F440001FFFF010100FFFF0701010100007FFFA6
:107F540080000000FFFF7F0000FFFFFF000001FF23
:107F6400FFFF01000000000000000000000000000E
:107F7400030F3F7F7FFFFFFFFFFFFFFFE7C7C78FB1
:107F84008F9FBFFFFFC3C0F0FFFFFFFFFFFCFCFCA0
:107F9400FCFCFCFCFCF8F8F0F0E0C0000103030377
:107FA40003030103030000000001030303030101B1
:107FB40003010000000103030303010103030000A4
:107FC40000030300000003030000000000000001A0
:107FD4000303030303010000000103010000000385
:107FE4000301000000000000000000000000000089
:107FF40000000080C0E0F0F9FFFFFFFFFF3F1F0F0C
:1080040087C7F7FFFF1F1F3DFCF8F8F8F87C7DFFDA
:10801400FFFFFFFFFFFFFF7F3F0F0700303000002F
:10802400000000000000000000000000000000004C
:1080340000000000FEFEFC00000000000000000044
:1080440000000000000000000000000000E0C0008C
:1080540000000000000000000000303000000000BC
:10806400000000000000000000000000000000000C
:1080740000C0FEFFFFFFFFFFFFFFFFFF7F7F3F1FEB
:108084000F071F7FFFFFF8F8FFFFFFFFFFFEF8E079
:10809400000000010000000000000000FEFE0000DF
:1080A40000FCFEFC0C06060EFCF80000F0F81C0EAA
:1080B4000606060CFFFFFF0000FEFE00000000FCA9
:1080C400FEFC00183C7E66E6CE84000006FFFF0638
:1080D40006FCFEFC0C0606060000FEFE0000C0F8CE
:1080E400FC4E4646464E7C7840183C76E6CECC8024
:1080F400000000000000000000000000000000007C
:108104000000000001070F1F1F3F3F3F3F1F0F03E9
:108114000000000000000000000000000F0F00003D
:10812400000F0F0F000000000F0F000003070E0CDC
:1081340018180C060F0F0F0000010F0E0C180C0F6F
:10814400070100040E0C180C0F070000000F0F00AD
:10815400000F0F0F0000000000000F0F00000007C9
:10816400070C0C181C0C060600040E0C180C0F0748
:1081740000000000000000000000000000000000FB
:1081840000000000000000000000000000000000EB
:1081940000000000000000000000000000000000DB
:1081A40000000000000000000000000000000000CB
:1081B40000000000000000000000000000000000BB
:1081C40000000000000000000000000000000000AB
:1081D400000000000000000000000000000000009B
:1081E400000000000000000000000000000000008B
:1081F400647B0D0000000000287D0D00487D0D000B
:10820400687D0D0000000000000000000000000078
:1082140000000000887D0D00000000000000000048
:10822400000000000000000000000000000000004A
:10823400000000000000000000000000000000003A
:10824400000000000000000000000000000000002A
:0882540000000000ECE1032032
:10825C00FFFFFFFF00000102030405060708090ADF
:10826C000B0C0D0E0F101112131415161718191ADA
:08827C001B1C1D1E1F20280021
:0482840078563412E2
:04000003D0004020C9
:00000001FF
